:020000040000fa
:080000000002040000000000f2
:020000040000fa
:10040000afba2000007f2400000188000000000037
:100410000c00070060012d00010020001100070002
:10042000000020000000e000020032000000020096
:1004300000000000dcd00200000000000040da00f4
:100440000000fe004440a900a0fe23000000e000e0
:100450000300320000002000a00188004440a800f2
:100460000000060091018800800078000000eb0089
:1004700015003700e280400032a0b4009101ba00bc
:10048000e280400032a0b4009102ba00e280400055
:1004900032a0b4000002eb00472bde00f507b200eb
:1004a000602ce10004003a000059eb008301e900f0
:1004b000fdff3e00040037006128e100010032002a
:1004c0000082eb00040007001101ba000200e00006
:1004d000e8ff3a00000006003159ba008301e90044
:1004e0000c0032002159ba008301e90008003200f3
:1004f0000400e00003003a00e280400032a0b400b3
:10050000f5ff370011d9ba008301e900faff3a007c
:100510008100e800e180400032a0b4000000060045
:100520000001be00310107000470a70003f0a10024
:1005300003f8a30013003a006509b100100032006f
:10054000090035006928e10002003500010028009b
:100550000000050000004000818048008502e9009d
:10056000fcff3a0000000600f88f4200050035004d
:100570008100d1000080d3008502e800fcff3a0032
:10058000000006008000eb0000000500889fbe0010
:100590008a9fbe00010578000100e00004003500dc
:1005a00008003c000000e000200032000500370099
:1005b00060001000e080180002003b0001f02c00f9
:1005c0001a0037000004be006011b8006b0920005b
:1005d0000982cf00020039000882cf000441b00038
:1005e000694252000e00320008003b008281710017
:1005f000610164008904d1000884d3008b05e80000
:100600000442e800f9ff3a000500370008044400fe
:1006100089844c008b05e9000442e900fbff3a00a5
:10062000070107000af0a70001f0a0004f05be0077
:100630004f04be000000060003f0a200889fbe0029
:100640008a9fbe008c1f7800230107002a01330017
:100650006450e1004f0032006420e100520032009b
:1006600003826c0007003b000905d0000306d000a0
:10067000820f54000c065d000200390002003200b7
:1006800089017800030678008582550004003d004a
:100690000003fd008103fd008502ea008b85420016
:1006a000840f720002003b0060001000e080180020
:1006b0006011b8000005eb007a28e1000a0039005b
:1006c00006007800c75ddd00f707b200878075007f
:1006d0002d003700828171000a01780061056000f9
:1006e0008180d1000080d3008502e900f9ff3b0042
:1006f000060440008784480002003b0060041400a8
:10070000e0841c000988a300070032008a81710080
:1007100082817100610164008904d1000884d300e2
:100720008b05e800170037000978a30013003a0092
:100730000b00e000130034008b05e90008044400be
:1007400089844c000a4474000978a3000d003a0023
:100750000b00e000070034008b05e90008044400aa
:1007600089844c0001003a000b0020000978a300a6
:10077000f7ff32000001eb000200370082817100b8
:100780000a017800ae0007000cf0a70001f0a000fd
:10079000e20037006420e10002003a00838f6c0021
:1007a000e20033000801be000200be00db0037009b
:1007b000889fbe008a9fbe008c1f7800c60007007d
:1007c000cd00330003866c006450e1002400320049
:1007d0006420e100270032006150e1002200320075
:1007e0006120e100210032008b854200eb07b1005f
:1007f0000134b800003ab8000804420089844a0075
:10080000013ab8000030b8008880400009014a0071
:1008100004003300000040008180480002014900cc
:100820008b05e900c909dd00830170000100320079
:1008300013002000c814de004814dd004709de0064
:100840001200b200c808de00088470007c000700b7
:1008500001f0a1000cf0a70001f0a000af003700ec
:100860006120e100b10032000801be000200be00bc
:10087000f7ff37006150e100fcff3a00ab003700a2
:10088000889fbe008a9fbe008c1f780092000700e0
:100890009900330003866c006450e1002e003200a2
:1008a0006420e100330032006150e1002f0032008b
:1008b0006120e1003100320085855500eb07b00072
:1008c0000900200008042000050037000804440047
:1008d00089844c000a0031000603430087834b00e3
:1008e0000001530081815b00f8ff33000203be006a
:1008f0000800a0000804440089844c00f6ff390079
:10090000c639dd00830173000100320013002000ae
:100910008904d1000884d3000998a300050032009f
:100920000800a7000300a0008904d1000884d300b8
:100930008b05e8008904d1000884d3000001eb0096
:100940000281d2003e00070001f0a1000cf0a700d8
:1009500001f0a000710037006420e1007300320054
:100960000801be000200be00f7ff37006120e10071
:100970006e0032006000b800f3ff37000000200076
:1009800001f82700f0ff3700140020006a0037004c
:10099000020007000400be00000006006022b8004c
:1009a000060220000000d0008180d2000482d20024
:1009b0008582d2000000a0000202520083825a0009
:1009c000030031000202420083824a000000a100bd
:1009d0000603e900f3ff3a0000000600f4ff2f00d1
:1009e000550037000400200053003700c70ade001e
:1009f000f107b200f50fb20008003200e1cf42006b
:100a0000020032000170a00024000500810f700078
:100a1000010032000408050044000500810f700049
:100a200002003a00140005008502e90000004000c1
:100a300081c04800fcff3b000170a00024000500bd
:100a400081002000618055000b003d000b0020005c
:100a500061fe2f000100e1001d0034008281710061
:100a6000610164008904d1000884d3000000e8001b
:100a7000faff3a007100200061006400030070007a
:100a8000020060000900320061044400e0844c0070
:100a90000988a500050032008b05e8006808e10020
:100aa00002003a008904d1000884d300f20f20002c
:100ab0000258e10005003d00c75ddd00f907b20006
:100ac0008980750008007800000006000bf82700f8
:100ad0008b007800000005000004be00c3ff070083
:100ae0000003be000405be000200be00bfff0700f9
:100af000844f7500000006000200be006450e10053
:100b0000050036006420e100020036000968a300f9
:100b100001003a000800be000160a0004f06780006
:100b20004f05be004f04be0000000600f0ff2f007e
:100b3000f1ff2700f9ff3700889fbe008a9fbe00a3
:100b4000841f7800e4ff07004f0078001100330095
:100b5000f0ff2f00838f6c0006003b00040565004a
:100b60000a00a7000800370009f0a60010002000c6
:100b700008003700820f5400838f5c0003003900a7
:100b80001000200001003e000000200009f0a70036
:100b90000000ea004f05be004f04be000000e00068
:040ba000000006004b
:020000040000fa
:0200000401f009
:04000c00f8ff0000f9
:020000040000fa
:0200000401f009
:04001000bbff000032
:020000040000fa
:0200000401f009
:040014007fff00006a
:020000040000fa
:10000800f4d000003cce00004cce00005cce0000d6
:100018006cce00007cce0000f4d00000f4d00000cc
:10002800f4d0000082b90000f4d0000052b90000fa
:10003800f4d0000018ba0000f4d00000f4d000009a
:10004800f4d00000f4d00000f4d00000f4d0000098
:10005800f4d00000f4d00000f4d00000f4d0000088
:10006800f4d00000f4d00000f4d00000f4d0000078
:10007800e8be0000f4d00000f4d00000b6ba0000da
:10008800f4d00000f4d00000f4d00000f4d0000058
:10009800f4d0000006bf0000f4d00000f4d0000047
:1000a800f4d00000f4d00000f4d00000f4d0000038
:1000b800f4d00000f4d00000f4d00000f4d0000028
:1000c800f4d00000f4d00000f4d00000f4d0000018
:1000d800f4d00000f4d00000f4d00000f4d0000008
:1000e800f4d00000f4d00000f4d00000f4d00000f8
:1000f800f4d00000f4d00000f4d00000f4d00000e8
:10010800f4d00000f4d00000f4d00000f4d00000d7
:10011800f4d00000f4d00000f4d00000f4d00000c7
:10012800f4d00000f4d00000f4d00000f4d00000b7
:10013800f4d00000f4d00000f4d00000f4d00000a7
:10014800f4d00000f4d00000f4d00000f4d0000097
:10015800f4d00000f4d00000f4d00000f4d0000087
:10016800f4d00000f4d00000f4d00000f4d0000077
:10017800f4d00000f4d00000f4d00000f4d0000067
:10018800f4d00000f4d00000f4d00000f4d0000057
:10019800f4d00000f4d00000f4d00000f4d0000047
:1001a800f4d00000f4d00000f4d00000f4d0000037
:1001b800f4d00000f4d00000f4d00000f4d0000027
:1001c800f4d00000f4d00000f4d00000f4d0000017
:1001d800f4d00000f4d00000f4d00000f4d0000007
:1001e800f4d00000f4d00000f4d00000f4d00000f7
:0801f800f4d00000f4d0000077
:020000040000fa
:10020800f4d000008ece00009ece0000aece0000de
:10021800bece0000cece0000f4d00000f4d0000026
:10022800f4d0000082b90000f4d0000052b90000f8
:10023800f4d0000018ba0000f4d00000f4d0000098
:10024800f4d00000f4d00000f4d00000f4d0000096
:10025800f4d00000f4d00000f4d00000f4d0000086
:10026800f4d00000f4d00000f4d00000f4d0000076
:10027800e8be0000f4d00000f4d00000b6ba0000d8
:10028800f4d00000f4d00000f4d00000f4d0000056
:10029800f4d0000006bf0000f4d00000f4d0000045
:1002a800f4d00000f4d00000f4d00000f4d0000036
:1002b800f4d00000f4d00000f4d00000f4d0000026
:1002c800f4d00000f4d00000f4d00000f4d0000016
:1002d800f4d00000f4d00000f4d00000f4d0000006
:1002e800f4d00000f4d00000f4d00000f4d00000f6
:1002f800f4d00000f4d00000f4d00000f4d00000e6
:10030800f4d00000f4d00000f4d00000f4d00000d5
:10031800f4d00000f4d00000f4d00000f4d00000c5
:10032800f4d00000f4d00000f4d00000f4d00000b5
:10033800f4d00000f4d00000f4d00000f4d00000a5
:10034800f4d00000f4d00000f4d00000f4d0000095
:10035800f4d00000f4d00000f4d00000f4d0000085
:10036800f4d00000f4d00000f4d00000f4d0000075
:10037800f4d00000f4d00000f4d00000f4d0000065
:10038800f4d00000f4d00000f4d00000f4d0000055
:10039800f4d00000f4d00000f4d00000f4d0000045
:1003a800f4d00000f4d00000f4d00000f4d0000035
:1003b800f4d00000f4d00000f4d00000f4d0000025
:1003c800f4d00000f4d00000f4d00000f4d0000015
:1003d800f4d00000f4d00000f4d00000f4d0000005
:1003e800f4d00000f4d00000f4d00000f4d00000f5
:0803f800f4d00000f4d0000075
:020000040000fa
:100ba4002d4700007561000064610000676e00005d
:100bb4006f2000006c6f00006e6700006974000015
:100bc40075640000696e00002e2000002000000003
:100bd400004900006e740000657200007661000038
:100be4006c6c00006f2000006c6f00006e670000ea
:100bf40069740000756400002e20000020000000cd
:100c04000044000065720000697600006174000011
:100c1400697600006f2000006c6f00006e670000b2
:100c24006974000075640000696e00002e00000005
:100c3400005a00006f6e0000612000006d6f00001c
:100c440072740000612000006c6f00006e67000089
:100c540069740000756400002e200000200000006c
:100c640000560000656c00006f63000069740000aa
:100c7400612000006d6f0000746f00007265000059
:100c8400206c00006f6e0000672e00002000000042
:100c9400004700007561000064610000676e000099
:100ca4006f2000007472000061730000766500001c
:100cb40072730000616c00006520000020000000d9
:100cc400004900006e740000657200007661000047
:100cd4006c6c00006f2000007472000061730000ef
:100ce4007665000072730000616c0000650000000e
:100cf400005a00006f6e0000612000006d6f00005c
:100d040072740000612000007472000061730000be
:100d14007665000072730000616c000065000000dd
:100d240000560000656c00006f63000069740000e9
:100d3400612000006d6f0000746f00007265000098
:100d44002074000072610000732e00002000000077
:100d5400004700007561000064610000676e0000d8
:100d64006f20000074690000726f000020200000f2
:100d7400202000002020000020200000200000008f
:100d8400004900006e740000657200007661000086
:100d94006c6c00006f20000074690000726f00002a
:100da400202000002020000020200000200000005f
:100db40000560000656c00006f6300006974000059
:100dc400612000006d6900006e6900006d61000023
:100dd400202000002020000020200000200000002f
:100de40000530000616c0000746f0000206100007b
:100df4006e6f00006d6100006c69000065200000ea
:100e040020200000202000002020000020000000fe
:100e140000530000656e0000736900006269000001
:100e24006c7400006120000061630000632f000007
:100e340064650000632e00002020000020000000f4
:100e440000530000656700006e6f0000206400001e
:100e54006920000072690000666500007269000084
:100e64006d6500006e7400006f200000200000001b
:100e7400005000006f730000697a0000696f000081
:100e84006e65000020730000656700006e6f00004f
:100e9400206900006e2000004d4d0000200000007d
:100ea400004600006f7200006d610000206d0000bc
:100eb4006172000063610000202000002020000017
:100ec400202000002020000020200000200000003e
:100ed400004900006e76000065720000736900002e
:100ee4006f6e000065200000636f000072720000e6
:100ef400657a0000696f00006e6500002000000044
:100f040000410000757400006f2d00005265000060
:100f14006769000073740000726f000020640000b1
:100f24006f7000006f2000004634000020000000b5
:100f3400004c0000696e000067750000612000002d
:100f4400202000002020000020200000202000009d
:100f540020200000202000002020000020000000ad
:100f64000054000072610000737600006572000096
:100f7400736100006c65000020610000747400005f
:100f8400697600006f20000020200000200000008f
:100f940000540000697200006f20000061740000ba
:100fa40074690000766f00002020000020200000fb
:100fb400202000002020000020200000200000004d
:100fc400004300006f6c00006420000053650000c3
:100fd400616c0000206100007474000069760000f8
:100fe4006f200000202000002020000020000000ce
:100ff400005a00006f6f00006d2000004572000071
:10100400726f0000726500002020000020200000a4
:1010140020200000202000002020000020000000ec
:1010240000410000707000006c6900006361000002
:101034007a6900006f6e000065200000547700009c
:10104400696e000020300000312000002000000004
:1010540000410000707000006c69000063610000d2
:101064007a6900006f6e000065200000547700006c
:10107400696e0000203000003220000020000000d3
:1010840000530000656c0000657a0000696f000081
:101094006e650000204500006e6300006f64000070
:1010a40065720000202000002020000020000000c5
:1010b400004d00006174000072690000636f00005d
:1010c4006c610000204d0000616300006368000053
:1010d400696e000061200000202000002000000054
:1010e4000041000072650000612000007675000078
:1010f4006f74000061200000696e0000204600004b
:1011040034200000202000002020000020000000e7
:10111400005200006974000061720000646f0000f6
:1011240020540000617300007469000065720000bf
:10113400612000002020000020200000200000008a
:10114400004d000061720000636100002050000047
:101154004e20000061740000746900007661000094
:10116400202000002020000020200000200000009b
:101174000044000041430000206c00006f6e00003a
:10118400672e00002061000074740000697600007e
:101194006f2000002020000020200000200000001c
:1011a400004400004143000020740000726100000c
:1011b400737600002e200000617400007469000042
:1011c400766f000020200000202000002000000096
:1011d40000440000414300002074000069720000d4
:1011e4006f2000006174000074690000766f0000d5
:1011f400202000002020000020200000200000000b
:1012040000440000414300002067000075610000b5
:1012140064610000676e00006f2000006c6f0000c6
:101224006e67000069740000756400002e00000001
:101234000044000041430000206700007561000085
:1012440064610000676e00006f2000007469000094
:10125400726f000020200000202000002000000009
:101264000044000041430000206700007561000055
:1012740064610000676e00006f2000006d61000073
:101284006e750000616c0000652000002000000005
:101294000044000041430000206f00006666000027
:1012a400736500007420000020200000202000004e
:1012b400202000002020000020200000200000004a
:1012c400004d00006f730000747200006120000084
:1012d40053760000696c00002e2000004369000072
:1012e4006c6900006e640000726f00002000000052
:1012f40000540000696d0000657200002053000076
:101304004e49000020200000202000002020000082
:1013140020200000202000002020000020000000e9
:10132400005200006974000061720000646f0000e4
:10133400204100006c6c0000617200006d650000cb
:1013440020200000202000002020000020000000b9
:1013540000520000656600007265000073680000ba
:101364002044000069730000706c00006179000083
:101374000920000020200000000000000000000000
:10138400004d00006f6400006f3a0000204d000023
:10139400433d000030200000202d000020200000ec
:1013a4004d4d00003d3100002020000020000000d1
:1013b400004c00006f6e0000676900007475000047
:1013c400646900006e6100006c2000004761000049
:1013d400696e000020200000202000002000000092
:1013e400004c00006f6e0000676900007475000017
:1013f400646900006e6100006c200000496e00000a
:101404007465000072760000616c0000200000002a
:10141400004c00006f6e00006769000074750000e6
:10142400646900006e6100006c20000044650000e7
:101434007269000076610000742e00002000000034
:10144400004c00006f6e00006769000074750000b6
:10145400646900006e6100006c20000044650000b7
:1014640061640000205a00006f6e000065000000f7
:10147400004c00006f6e0000676900007475000086
:10148400646900006e6100006c2000004d6f000074
:10149400746f0000722000005370000064000000ac
:1014a40000540000726100006e7300007665000055
:1014b40072730000616c0000204700006169000045
:1014c4006e200000202000002020000020000000ea
:1014d40000540000726100006e7300007665000025
:1014e40072730000616c0000204900006e740000fb
:1014f40065720000766100006c200000200000008e
:1015040000540000726100006e73000076650000f4
:1015140072730000616c00002044000065610000eb
:10152400642000005a6f00006e6500002000000077
:1015340000540000726100006e73000076650000c4
:1015440072730000616c0000204d00006f74000095
:101554006f7200002053000070640000200000003f
:1015640000540000656e0000736900006f6e000097
:1015740020470000616900006e2000002020000068
:101584002020000020200000202000002000000077
:1015940000540000656e0000736900006f6e000067
:1015a400204900006e74000065720000766100003e
:1015b4006c200000202000002020000020000000fb
:1015c400004d0000696e0000696d0000756d00003b
:1015d40020530000706500006564000020200000b6
:1015e4002020000020200000202000002000000017
:1015f400004a0000756d0000702000004572000074
:10160400726f0000722000002020000020200000e3
:1016140020200000202000002020000020000000e6
:10162400005300007065000065640000205600004f
:101634006172000069610000746900006f6e00004f
:1016440020200000202000002020000020000000b6
:10165400005200006566000065720000656e0000bf
:1016640063650000204d0000617200006b200000e3
:101674002020000020200000202000002000000086
:10168400004d0000617200006b200000506f0000ec
:1016940073690000746900006f6e00002069000027
:1016a4006e2000004d4d00002020000020000000ae
:1016b400004d0000617200006b20000073680000a0
:1016c4006170000065200000202000002020000040
:1016d4002020000020200000202000002000000026
:1016e400005200006576000065720000736100001e
:1016f4006c200000436f00007272000065630000fc
:10170400746900006f6e00002020000020000000bb
:1017140000410000757400006f2d00005265000048
:1017240067690000737400006572000020610000a6
:10173400667400006572000020460000340000005a
:10174400004c0000616e00006775000061670000d6
:101754006520000020200000202000002020000040
:101764002020000020200000202000002000000095
:1017740000540000726100006e7300007665000082
:1017840072730000616c0000204500006e6100006f
:10179400626c00006564000020200000200000004e
:1017a40000540000656e0000736900006f6e000055
:1017b400204500006e610000626c0000656400005a
:1017c4002020000020200000202000002000000035
:1017d400004300006f6c00006420000053650000ab
:1017e400616c0000204500006e610000626c000026
:1017f400656400002020000020200000200000007c
:1018040000450000727200006f720000205a000050
:101814006f6f00006d2000002020000020200000d9
:1018240020200000202000002020000020000000d4
:1018340000540000776900006e2000004170000031
:10184400706c00006963000061740000696f00003f
:101854006e20000030310000202000002000000035
:1018640000540000776900006e2000004170000001
:10187400706c00006963000061740000696f00000f
:101884006e20000030320000202000002000000004
:10189400004500006e6300006f6400006572000084
:1018a40020530000656c000065630000746900004b
:1018b4006f6e0000202000002020000020000000a7
:1018c400004d000061630000686900006e6500005f
:1018d4002053000065720000696100006c20000064
:1018e4004e7500006d62000065720000200000006b
:1018f400004500006d700000747900002041000074
:101904007265000061200000696e0000204600003e
:1019140034200000202000002020000020000000cf
:10192400004b000065790000626f000061720000e6
:1019340064200000446500006c6100007920000010
:1019440020200000202000002020000020000000b3
:10195400005000004e2000006d610000726b00001a
:10196400206500006e610000626c00006564000088
:101974002020000020200000202000002000000083
:10198400004500006e610000626c000065200000ec
:1019940044410000432000006c6f00006e670000ab
:1019a4002e20000020200000202000002000000045
:1019b400004500006e610000626c000065200000bc
:1019c400444100004320000074720000616e000076
:1019d400737600002e20000020200000200000006c
:1019e400004500006e610000626c0000652000008c
:1019f4004441000043200000746500006e73000041
:101a0400696f00006e20000020200000200000000c
:101a14000044000041430000206c00006f6e000091
:101a24006769000074750000642e000020670000e0
:101a3400616900006e2000002020000020000000ea
:101a4400004400004143000020740000656e000063
:101a5400736900006f6e0000206700006169000078
:101a64006e20000020200000202000002000000044
:101a74000044000041430000206d0000616e00003e
:101a8400756100006c20000067610000696e000051
:101a94002020000020200000202000002000000062
:101aa4000044000041430000206f0000666600000f
:101ab4007365000074200000202000002020000036
:101ac4002020000020200000202000002000000032
:101ad40000530000686f0000772000006379000065
:101ae4006c6900006e6400006572000020730000e1
:101af400697a00006520000020200000200000001a
:101b040000540000696d000065720000205300005d
:101b14004e4900002020000020200000202000006a
:101b240020200000202000002020000020000000d1
:101b3400004100006c610000726d00002044000050
:101b4400656c000061790000202000002020000066
:101b540020200000202000002020000020000000a1
:101b64000044000069730000706c0000617900009b
:101b74002052000065660000726500007368000072
:101b840020090000202000002000000000000000c8
:101b9400004d00006f640000653a0000204d000015
:101ba400433d000030200000202d000020200000d4
:101bb4004d4d00003d3100002020000020000000b9
:101bc400004c0000616e00006765000020470000c3
:101bd40065770000696e00006e2000002020000080
:101be4002020000020200000202000002000000011
:101bf400004c0000616e0000676500002049000091
:101c04006e74000065720000776100006c200000b3
:101c140020200000202000002020000020000000e0
:101c2400004c0000616e0000676500002052000057
:101c3400756300006b730000746100006e64000043
:101c440020200000202000002020000020000000b0
:101c5400005400006f7400007a6f00006e6500008d
:101c6400206c0000616e00006765000020520000d7
:101c7400656700006973000074650000720000006d
:101c84000047000065730000636800007769000086
:101c94006e2e0000206c0000616e0000676500007d
:101ca400204d00006f7400006f72000020000000df
:101cb40000510000756500007220000047650000b7
:101cc400776900006e6e00002020000020200000d4
:101cd4002020000020200000202000002000000020
:101ce400005100007565000072200000496e00007c
:101cf4007465000072770000616c00002020000011
:101d040020200000202000002020000020000000ef
:101d1400005100007565000072200000546f00003f
:101d2400747a00006f6e000065200000202000001f
:101d340020200000202000002020000020000000bf
:101d440000470000657300006368000077690000c5
:101d54006e2e0000207100007565000072200000e6
:101d64004d6f0000746f000072200000200000001e
:101d74000047000065770000696e00006e200000d7
:101d840053700000616e00006e7500006e67000005
:101d9400202000002020000020200000200000005f
:101da400004900006e740000657200007761000055
:101db4006c20000053700000616e00006e7500001e
:101dc4006e6700002020000020200000200000009a
:101dd400004d0000696e0000696d0000616c000038
:101de4002047000065730000636800007769000005
:101df4006e640000696700006b2e00002000000084
:101e040000460000656800006c6500007220000058
:101e14005562000065720000737000007269000072
:101e24006e670000656e00002020000020000000a6
:101e340000530000656e00007369000062690000d1
:101e44006c69000074e4000074200000686f0000f6
:101e5400636800006c6100007566000020000000eb
:101e640000480000696e0000776500006973000097
:101e7400204d0000617200006b650000202000000e
:101e8400202000002020000020200000200000006e
:101e9400004d0000617200006b65000020530000db
:101ea400746500006c6c0000756e00006720000013
:101eb4004d4d0000202000002020000020000000e4
:101ec400004d0000617200006b65000020460000b8
:101ed4006f7200006d200000202000002020000010
:101ee400202000002020000020200000200000000e
:101ef400005500006d6b00006568000072750000fd
:101f04006e670000204b00006f72000072650000d5
:101f14006b74000075720000202000002000000097
:101f240000410000757400006f2d00005265000030
:101f3400676900007374000065720000206e000081
:101f440061630000682000004634000020000000a7
:101f540000530000707200006163000068650000b7
:101f6400202000002020000020200000202000006d
:101f7400202000002020000020200000200000007d
:101f8400006100006b7400006976000020510000bd
:101f94007565000072200000202000002020000051
:101fa400202000002020000020200000200000004d
:101fb400006100006b74000069760000205300008b
:101fc400706100006e6e0000756e000067200000f6
:101fd400202000002020000020200000200000001d
:101fe400006100006b74000069760000204300006b
:101ff4006f6c00006420000073650000616c0000d9
:1020040020200000202000002020000020000000ec
:10201400005a00006f6f00006d200000466500004c
:10202400686c000065720000202000002020000081
:1020340020200000202000002020000020000000bc
:10204400004100006e770000656e000064750000ba
:102054006e67000020540000776900006e200000c5
:10206400303100002020000020200000200000006b
:10207400004100006e770000656e0000647500008a
:102084006e67000020540000776900006e20000095
:10209400303200002020000020200000200000003a
:1020a400004100007573000077610000686c000057
:1020b400204500006e6300006f640000657200003c
:1020c400202000002020000020200000200000002c
:1020d400004b0000656e00006e7500006d6d000021
:1020e40065720000205200006567000069730000fb
:1020f4007465000072200000202000002000000011
:102104000044000072750000636b000066720000fa
:1021140065690000657200002042000065720000dd
:102124006569000063680000204600003400000078
:1021340000560000657200007a6f000067650000b9
:10214400727500006e670000205400006173000087
:10215400746100007475000072200000200000000b
:10216400004d0000617200006b650000205000000b
:102174004e200000616b00007469000076200000ae
:10218400202000002020000020200000200000006b
:102194000044000041430000206100006b74000013
:1021a40069760000206c0000e46e000067650000a2
:1021b400202000002020000020200000200000003b
:1021c4000044000041430000206100006b740000e3
:1021d400697600002071000075650000722000001f
:1021e400202000002020000020200000200000000b
:1021f4000044000041430000206100006b740000b3
:102204006976000020530000706100006e6e0000cb
:10221400756e0000672000002020000020000000f0
:102224000044000041430000206c0000616e000087
:10223400676500002047000065770000696e0000b4
:102244006e2000002020000020200000200000005c
:10225400004400004143000020470000657700006f
:10226400696e00006e20000053700000616e000073
:102274006e7500006e670000202000002000000042
:102284000044000041430000206d0000616e000026
:10229400756100006c20000047650000776900004c
:1022a4006e6e0000202000002020000020000000ae
:1022b4000044000041430000204f00006666000017
:1022c400736500007420000020200000202000001e
:1022d400202000002020000020200000200000001a
:1022e400005a0000796c0000696e0000646500000b
:1022f40072670000726f0000df650000207a000042
:1023040065690000676500006e2000002000000081
:1023140000540000696d0000657200002053000045
:102324004e49000020200000202000002020000052
:1023340020200000202000002020000020000000b9
:10234400004100006c610000726d000076650000c1
:10235400727a00006f67000065720000756e0000fd
:102364006720000020200000202000002000000042
:1023740000420000696c00006473000063680000a0
:10238400697200006d200000657200006672000032
:102394006973000063680000656e0000200000009f
:1023a400004d00006f640000757300003a200000c7
:1023b4004d4300003d300000202000002d2000008f
:1023c400204d00004d3d00003120000020000000a1
:1023d40000470000616900006e200000636900008e
:1023e400726300006f6e0000666500007265000095
:1023f4006e740000696100006c2000002000000081
:1024040000430000796300006c69000071750000ee
:102414006520000063690000726300006f6e0000b5
:1024240066650000722e00002020000020000000dd
:1024340000440000657200006976000061740000c9
:10244400697600002063000069720000636f000079
:102454006e660000657200002e200000200000005f
:10246400005a00006f6e0000652000006d6f0000d0
:10247400727400006520000063690000726300004c
:102484006f6e000066650000722e000020000000e0
:102494000056000069740000657300007365000055
:1024a400206d00006f74000065750000722000004c
:1024b40063690000726300006f6e00002e0000006c
:1024c40000470000616900006e2000007472000083
:1024d400617300007665000072730000616c000097
:1024e4002020000020200000202000002000000008
:1024f40000430000796300006c69000071750000fe
:1025040065200000747200006173000076650000ad
:1025140072730000616c00002020000020000000a5
:10252400005a00006f6e0000652000006d6f00000f
:10253400727400006520000063690000726300008b
:102544006f6e000066650000722e0000200000001f
:102554000056000069740000657300007365000094
:10256400206d00006f74000065750000722000008b
:102574007472000061730000762e000020000000d9
:1025840000470000616900006e20000064650000df
:10259400206c000061200000746500006e73000070
:1025a400696f00006e200000202000002000000061
:1025b40000430000796300006c690000717500003d
:1025c400652000006465000020740000656e000052
:1025d400736900006f6e00002020000020000000de
:1025e4000056000069740000657300007365000004
:1025f400206d00006f6900006e64000072650000c9
:1026040020200000202000002020000020000000e6
:102614000053000061750000742000006465000030
:1026240020650000727200006575000072200000d1
:1026340020200000202000002020000020000000b6
:1026440000560000617200006961000074690000b6
:102654006f6e0000206400006520000076690000b1
:102664007465000073730000652000002000000002
:10267400004d0000617200007175000065200000cb
:102684006465000020720000656600006572000049
:10269400656e00006365000020200000200000003b
:1026a400005000006f73000069740000696f00003f
:1026b4006e20000064650000206d0000617200005f
:1026c40071750000652000004d4d000020000000e1
:1026d400004600006f7200006d6500002064000079
:1026e400652000006c610000206d00006172000034
:1026f400717500006520000020200000200000000b
:10270400004900006e7600006572000073690000e5
:102714006f6e0000206300006f720000726500009d
:1027240063740000696f00006e2000002000000048
:1027340000410000757400006f2d00005265000018
:102744007065000072610000676500002061000090
:102754007072000065730000204600003400000021
:10276400004c0000616e00006775000065200000e9
:102774002020000020200000202000002020000055
:102784002020000020200000202000002000000065
:10279400005400007261000073760000657200004e
:1027a400736100006c200000616300007469000024
:1027b40066200000202000002020000020000000ef
:1027c40000540000656e0000736900006f6e000025
:1027d400206100006374000069660000202000008e
:1027e4002020000020200000202000002000000005
:1027f400004300006f6c000064200000536500007b
:10280400616c0000206100006374000069660000d0
:1028140020200000202000002020000020000000d4
:10282400004500007272000065750000722000000f
:102834007a6f00006f6d000020200000202000004f
:1028440020200000202000002020000020000000a4
:1028540000410000707000006c69000063610000ba
:10286400746900006f6e0000205400007769000056
:102874006e20000030310000202000002000000005
:1028840000410000707000006c690000636100008a
:10289400746900006f6e0000205400007769000026
:1028a4006e200000303200002020000020000000d4
:1028b40000530000656c000065630000746900004b
:1028c4006f6e0000206500006e6300006f640000fe
:1028d400657200002020000020200000200000007d
:1028e400004d00006174000072690000637500000f
:1028f4006c650000206d00006163000068690000e1
:102904006e65000020200000202000002000000050
:10291400005a00006f6e0000652000006c69000022
:102924006272000065200000696d00007072000092
:10293400657300002e2000002046000034000000d3
:102944000052000065740000617200006420000001
:10295400636c00006176000069650000722000006d
:102964002020000020200000202000002000000083
:10297400004d0000617200007175000065200000c8
:10298400504e00002061000063740000696600007e
:102994002020000020200000202000002000000053
:1029a40000440000414300002063000069720000fd
:1029b400636f00006e660000657200002e20000048
:1029c40061630000746900006620000020000000bc
:1029d40000440000414300002074000072610000c4
:1029e4007376000065720000736100006c200000c3
:1029f400616300007469000066200000200000008c
:102a0400004400004143000020740000656e000093
:102a1400736900006f6e00002061000063740000a1
:102a24006966000020200000202000002000000033
:102a34000044000041430000206700006169000079
:102a44006e20000063690000726300006f6e000076
:102a540066650000722e00002020000020000000a7
:102a64000044000041430000206700006169000049
:102a74006e20000064650000206c000061200000ee
:102a8400746500006e730000696f00006e00000042
:102a94000044000041430000206700006169000019
:102aa4006e2000006d6100006e750000656c000012
:102ab4002020000020200000202000002000000032
:102ac4000044000041430000206f000066660000df
:102ad4007365000074200000202000002020000006
:102ae4002020000020200000202000002000000002
:102af400004d00006f6e00007472000065720000eb
:102b0400206c000065200000637900006c690000ff
:102b14006e640000726500002020000020000000a8
:102b240000540000696d000065720000205300002d
:102b34004e4900002020000020200000202000003a
:102b440020200000202000002020000020000000a1
:102b540000540000656d0000706f00007269000091
:102b640073610000746900006f6e0000206400004f
:102b7400276100006c610000726d000065000000b8
:102b84000045000063720000616e000020720000c6
:102b940061660000726100006963000068690000fa
:102ba40072200000202000002020000020000000ef
:102bb400004d00006f640000653a0000204d0000e5
:102bc400433d000030200000202d000020200000a4
:102bd4004d4d00003d310000202000002000000089
:102be40000470000616e0000616e00006369000030
:102bf400612000006369000072630000756e0000cc
:102c040066650000726500006e2e00002000000062
:102c140000430000696300006c690000636f0000fa
:102c24002063000069720000637500006e66000096
:102c340065720000656e00002e2000002000000078
:102c440000440000657200006976000061740000b1
:102c5400697600006f200000636900007263000061
:102c6400756e000066650000722e000020000000f2
:102c7400005a00006f6e0000612000006d750000b6
:102c8400657200007461000020630000696e00003a
:102c9400637500006e6600002e2000002000000016
:102ca40000560000656c00006f630000696400005a
:102cb40061640000206d00006f7400006f720000fa
:102cc4002063000069720000637500002e0000009c
:102cd40000470000616e0000616e0000636900003f
:102ce4006120000074720000616e000073760000c1
:102cf40065720000736100006c2000002000000079
:102d040000430000696300006c690000636f000009
:102d140020740000726100006e730000766500008c
:102d240072730000616c000020200000200000008d
:102d3400005a00006f6e0000612000006d750000f5
:102d4400657200007461000020740000726100006c
:102d54006e7300002e2000002020000020000000e0
:102d640000560000656c00006f6300006964000099
:102d740061640000206d00006f7400006f72000039
:102d840020740000726100006e7300002e000000c9
:102d940000470000616e0000616e0000636900007e
:102da400612000006465000020740000656e00006e
:102db40073690000f36e0000202000002000000072
:102dc40000430000696300006c690000636f000049
:102dd40020640000652000006c6100002074000085
:102de400656e000073690000f36e000020000000af
:102df40000560000656c00006f6300006964000009
:102e040061640000206d0000696e0000696d0000bf
:102e1400612000002020000020200000200000008d
:102e240000530000616c0000746f00002064000017
:102e34006520000065720000726f000072200000bf
:102e4400202000002020000020200000200000009e
:102e540000560000617200006961000063690000af
:102e6400f36e000020760000656c00006f630000c4
:102e7400696400006164000020200000200000005c
:102e8400004d0000617200006361000020640000d6
:102e94006520000072650000666500007265000030
:102ea4006e63000069610000202000002000000023
:102eb400005000006f7300006963000069f30000b4
:102ec4006e200000646500006c2000007365000043
:102ed4006e6100006c2000004d4d000020000000d9
:102ee400004600006f7200006d610000206d00005c
:102ef40061720000636100002020000020200000b7
:102f040020200000202000002020000020000000dd
:102f140000430000616d0000626900006f20000042
:102f2400636f000072720000656300006369000053
:102f3400f36e00002020000020200000200000008c
:102f440000410000757400006f2d00005265000000
:102f54006769000073740000726f0000204600006f
:102f64003420000020200000202000002000000069
:102f7400004c0000656e00006775000061200000d1
:102f8400202000002020000020200000202000003d
:102f9400202000002020000020200000200000004d
:102fa40000540000726100006e730000766500003a
:102fb40072730000616c0000206100006374000003
:102fc400697600006f20000020200000200000002f
:102fd40000540000656e000073690000f36e000089
:102fe4002061000063740000697600006f20000017
:102ff40020200000202000002020000020000000ed
:10300400004300006f6c0000642000005365000062
:10301400616c0000206100006374000069760000a8
:103024006f2000002020000020200000200000006d
:10303400005a00006f6f00006d20000065720000f0
:10304400726f000072200000202000002020000089
:10305400202000002020000020200000200000008c
:1030640000410000706c00006963000061630000af
:1030740069f300006e20000054770000696e0000c0
:10308400203000003120000020200000200000003b
:1030940000410000706c000069630000616300007f
:1030a40069f300006e20000054770000696e000090
:1030b400203000003220000020200000200000000a
:1030c40000530000656c0000656300006369000044
:1030d400f36e0000206500006e6300006f64000062
:1030e4006572000020200000202000002000000065
:1030f400004d0000617400007269000063750000f7
:103104006c610000206d00006171000075690000b1
:103114006e6100002020000020200000200000003c
:10312400004100007265000061200000696d00002c
:1031340070720000656e000074610000206c000075
:10314400696200007265000020460000340000003f
:10315400005200006574000061720000646f00009a
:1031640020740000656300006c61000020200000f2
:10317400202000002020000020200000200000006b
:10318400004d0000617200006361000020500000e7
:103194004e2000006163000074690000766f000037
:1031a400202000002020000020200000200000003b
:1031b40000440000414300002063000069720000e5
:1031c400636f00006e6600002e2000004163000063
:1031d40074690000766f00002020000020000000c9
:1031e40000440000414300002074000072610000ac
:1031f4006e7300007665000072730000616c00005d
:103204002041000063740000697600006f00000034
:10321400004400004143000020740000656e00007b
:10322400736900006f6e00006520000041630000b8
:1032340074690000766f0000202000002000000068
:10324400004400004143000020670000616e00005c
:10325400616e000063690000612000006369000082
:1032640072630000756e0000662e000020000000ee
:10327400004400004143000020670000616e00002c
:10328400616e000063690000612000007465000045
:103294006e730000696f00006e20000020000000c3
:1032a400004400004143000020670000616e0000fc
:1032b400616e000063690000612000006d61000020
:1032c4006e750000616c00002020000020000000ea
:1032d4000044000041430000206f000066660000c7
:1032e40073650000742000002020000020200000ee
:1032f40020200000202000002020000020000000ea
:1033040000440000656d00006f73000074720000db
:1033140061720000206500006c20000063690000f9
:103324006c6900006e640000726f000020000000f1
:1033340000540000696d0000657200002053000015
:103344004e49000020200000202000002020000022
:103354002020000020200000202000002000000089
:10336400005200006574000061720000646f000088
:103374002064000065200000616c000061720000a0
:103384006d610000202000002020000020000000cb
:10339400005200006566000072650000736300005f
:1033a4006172000020700000616e00007461000012
:1033b4006c6c000061200000202000002000000050
:1033c400004d00006f6400006f3a0000204d0000c3
:1033d400433d000030200000202d0000202000008c
:1033e4004d4d00003d310000202000002000000071
:1033f400006d00006f640000653a0000006d00007d
:10340400616e0000756100006c00000061750000d1
:10341400746f00006d6100007469000063000000b7
:103424007370000065650000643a000000730000da
:10343400706400003a000000736900007a650000bf
:103444003a0000006d7400002f6d0000696e0000ea
:10345400006d000065730000736100006765000083
:103464003a000000616c0000617200006d3a0000d7
:10347400004e00006f20000070720000696e0000b2
:10348400740000004c6f000077200000737000008f
:10349400656500006400000053630000616e000075
:1034a4006e6900006e67000020480000656100003e
:1034b400640000007465000073740000206600005e
:1034c400616900006c65000064000000456e000046
:1034d400636f000064650000720000004175000025
:1034e400746f00006d6100007469000063200000c7
:1034f4005068000061730000650000006661000010
:10350400696c00006564000000430000796c0000f1
:10351400696e000064650000722000007369000099
:103524007a650000202800005031000029000000c6
:103534006e6f00006e200000616300006365000090
:1035440070740000616200006c65000000470000b8
:103554006174000065200000285000003329000039
:10356400004e00006f200000707200006f620000c7
:103574006c6500006d000000416c00006172000089
:103584006d200000200000006e6f00006e2000001f
:1035940072650000636f0000676e0000697a0000c6
:1035a400656400000070000068610000736500003d
:1035b4002077000069740000682000006f73000029
:1035c400636900006c6c00006f730000636f00009f
:1035d400706500003a00000066610000737400002a
:1035e400206300006f7200007265000063740000c5
:1035f400696f00006e2000007068000061730000b5
:10360400653a0000006f000073630000696c0000fd
:103614006c6f0000736300006f700000653a000077
:1036240000720000656700006973000074650000a3
:10363400722000006d610000726b00002d6d0000af
:10364400617200006b3a00000072000065670000c0
:103654006973000074650000722000006d61000051
:10366400726b00002d630000796c0000696e00002d
:1036740064650000723a00000045000072720000a8
:103684006f72000000720000657300006574000032
:10369400004d0000616e0000756100006c000000c8
:1036a400706800006173000065000000417500004f
:1036b400746f00006d610000746900006300000015
:1036c4005068000061730000652000007769000005
:1036d40074680000006f000073630000696c0000f0
:1036e4006c6f0000736300006f7000000046000000
:1036f4006173000074200000636f000072720000a8
:103704006563000074000000437900006c690000e8
:103714006e6400006572000000730000697a0000a6
:1037240065000000416c0000617200006d00000043
:10373400626f0000756e00006400000047610000c5
:10374400746500000077000069640000746800007c
:10375400005300006f66000074770000617200007f
:10376400650000005665000072730000696f000078
:103774006e0000004f660000667300006574000070
:103784000064000069730000746100006e6300004f
:103794006500000053630000616e00006e69000064
:1037a4006e6700002000000068650000616400008e
:1037b400207400006573000074000000746500004c
:1037c40073740000004f00007574000070750000f1
:1037d40074730000005600006973000075610000f6
:1037e4006c000000526500006769000073740000fb
:1037f40065720000004f000073630000696c0000f4
:103804006c6f0000736300006f700000004a0000da
:103814006f620000730000006172000063680000c2
:103824006976000065000000467500006e630000c4
:10383400746900006f6e00007300000050610000a6
:10384400726100006d650000746500007273000011
:1038540000540000657300007473000000730000de
:10386400696d0000706c0000652000007365000045
:1038740074750000703a000000660000756c00006a
:103884006c2000007365000074750000703a00003d
:103894000041000063630000656c00006572000075
:1038a40061740000696f00006e0000004465000050
:1038b400636500006c6500007261000074690000bb
:1038c4006f6e0000004400006f750000626c000021
:1038d400652000004d610000726b00000041000093
:1038e400757400006f0000004c6f00006e670000ec
:1038f4003a00000054720000616e00003a000000bb
:10390400546500006e7300003a000000536100002b
:1039140076650000004a00006f620000004c000061
:103924006f61000064000000467200006f6e0000ca
:10393400742f000042610000636b0000006100000e
:10394400707000006c69000063610000746900001d
:103954006f6e0000004900006e7300006574000083
:103964007465000072000000437500007474000068
:10397400696e0000670000005765000062200000c7
:10398400666f00006c640000696e00006700000050
:1039940050650000726600006f72000061740000e0
:1039a400696f00006e000000467200006f6e000038
:1039b4007473000069640000650000004261000047
:1039c400636b00007369000064650000004600003a
:1039d400726f00006e7400002f42000061630000eb
:1039e4006b730000696400006520000072650000cc
:1039f4006769000073740000657200003a000000fb
:103a0400696e000073650000747400006572000044
:103a1400207200006567000069730000746500008f
:103a2400723a0000004300007574000074690000dd
:103a34006e6700002d6f00006666000020720000b3
:103a4400656700006973000074650000723a000045
:103a54000057000065620000206600006f6c0000e3
:103a6400646900006e670000207200006567000052
:103a74006973000074650000723a00000050000091
:103a840065720000666f00007261000074690000d6
:103a94006f6e00002072000065670000697300000b
:103aa40074650000723a000000460000726f000066
:103ab4006e740000736900006465000020720000e9
:103ac400656700006973000074650000723a0000c5
:103ad40000420000616300006b7300006964000031
:103ae40065200000726500006769000073740000bf
:103af400657200003a00000031000000320000004e
:103b040041700000706c0000696300006174000083
:103b1400696f00006e000000736500006c650000b2
:103b240063740000696f00006e000000506f0000b5
:103b3400736900007469000076650000004d0000a0
:103b4400617200006b0000004e65000067610000b8
:103b54007469000076650000005000002f4e0000dc
:103b6400204d0000617200006b00000053650000ee
:103b74006c65000063740000696f00006e00000053
:103b8400546500006e730000696f00006e20000031
:103b9400626100007365000000760000616c000043
:103ba40075650000004d0000617200006b2d00007f
:103bb4004d610000726b0000007000006f73000024
:103bc40069740000696f00006e730000004d00000e
:103bd4004d200000706f00007369000074690000dc
:103be4006f6e0000730000007265000066650000df
:103bf400726500006e6300006500000073690000d8
:103c0400676e0000616c0000004500005252000025
:103c14005f49000044580000004200006573000042
:103c2400746900006d6d0000756e0000670000008f
:103c34006d6100006e750000656c00006c00000092
:103c440061750000746f00006d610000746900000c
:103c54006b00000047650000736300006877000094
:103c6400696e000064690000676b0000656900000c
:103c7400740000004765000073630000683a0000a8
:103c840000670000726f000073730000653a000063
:103c9400004e000061630000687200006963000068
:103ca400687400000044000072750000636b00003b
:103cb40020660000656800006c740000006c000061
:103cc400616e000067730000616d00002047000012
:103cd4006573000063680000776900006e6400008b
:103ce400696700006b65000069740000004c000007
:103cf40065730000656b00006f70000066000000d3
:103d040074650000737400002049000072720000a2
:103d1400747500006d000000456e0000636f0000c4
:103d24006465000072200000746500007374000074
:103d34000049000072720000747500006d000000fc
:103d440041750000746f00006d610000746900002b
:103d5400736300006865000000450000696e0000a0
:103d640073740000656c00006c7500006e670000e1
:103d74002049000072720000747500006d0000009c
:103d8400466f0000726d000061740000205a00004c
:103d9400796c0000696e0000646500007220000008
:103da4002850000031290000006e00006963000003
:103db40068740000206100006b7a000065700000e8
:103dc40074610000626500006c000000546f000024
:103dd400722000005765000069740000652000002f
:103de4002850000033290000004f00004b00000061
:103df4006e6900006368000074200000616e0000ba
:103e0400657200006b6100006e6e000074000000bb
:103e1400456900006e730000746500006c6c00005e
:103e2400756e0000672000006d69000074200000ba
:103e3400646500006d2000004f7300007a69000083
:103e44006c6c00006f7300006b6f0000700000006a
:103e5400456900006e730000746500006c6c00001e
:103e6400756e000067200000566500007262000055
:103e74006573000073650000727500006e670000d2
:103e840020730000747200006f6d00007363000003
:103e9400686500006e6500006c6c00006500000041
:103ea4004f7300007a6900006c6c00006f730000af
:103eb4006b6f00007000000052650000676900002d
:103ec4007374000065720000204d000061720000f0
:103ed4006b6500002d4d0000617200006b650000f1
:103ee4003a00000052650000676900007374000026
:103ef40065720000204d0000617200006b650000d7
:103f04002d5a0000796c0000696e000064650000a1
:103f1400723a0000004e0000756c00006c650000f1
:103f2400696e000073740000656c00002e000000d0
:103f340046650000686c00006572000000450000e2
:103f4400696e000073740000656c00006c750000fd
:103f54006e67000000610000757400006f6d000062
:103f6400617400006973000063680000004500008c
:103f7400696e000073740000656c00006c750000cd
:103f84006e6700002061000000620000657300009d
:103f9400636800006c650000756e000069670000ce
:103fa400756e000067000000646900006d65000024
:103fb4006e730000696f00006e0000007a790000e3
:103fc4006c6900006e64000065720000004c000023
:103fd400696d000069740000005700006569000005
:103fe40074650000005400006f720000004500007a
:103ff4006e74000066650000726e0000756e00004d
:10400400670000006f6600006673000065740000be
:104014000054000065730000740000004175000046
:1040240073670000616e0000676500006e000000a9
:1040340041720000636800006976000000410000de
:104044007262000065690000746500006e00000083
:10405400467500006e6b0000746900006f6e00000e
:10406400656e00000050000061720000616d000088
:1040740065740000657200006e0000006c6500004d
:104084006963000068740000205300006574000038
:1040940075700000007600006f6c00006c73000007
:1040a400746100006e640000696700002053000022
:1040b4006574000075700000004800006f63000024
:1040c400686c0000617500006600000052fc00008e
:1040d400636800006c610000756600000064000005
:1040e4006f700000706500006c2000004d610000de
:1040f400726b0000650000006d6100006e2e000010
:10410400006c0000616e0000677300003a0000005c
:1041140071750000657200000053000070610000ba
:104124006e2e0000007300007065000069630000db
:1041340068650000726e00000041000072620000b9
:1041440065690000740000006c6100006465000093
:104154006e00000053740000657500006572000075
:10416400756e000067000000566f00007264000066
:10417400657200002f520000756300006b7300002d
:104184006569000074650000005300006368000066
:104194006e6900007474000000460000616c000049
:1041a4007a000000566f000072640000657200001f
:1041b40000520000fc6300006b730000656900009e
:1041c40074650000005600006f7200006465000012
:1041d400722f000052fc0000636b00007365000046
:1041e40069740000652000005265000067690000e2
:1041f4007374000065720000004900006e730000d3
:1042040065740000746500007220000052650000af
:1042140067690000737400006572000000530000b9
:10422400636800006e69000074740000205200008e
:104234006567000069730000746500007200000087
:10424400466100006c7a000020520000656700009f
:10425400697300007465000072000000506500007e
:10426400726600006f72000061740000696f0000e4
:104274006e2000005265000067690000737400003e
:1042840065720000005600006f7200006465000053
:10429400722000005265000067690000737400001a
:1042a4006572000000520000fc6300006b730000a4
:1042b40065690000746500002072000065670000f5
:1042c400697300007465000072000000417500000d
:1042d40073770000616800006c000000416e00000c
:1042e400776500006e640000756e000067000000d2
:1042f4004d610000726b000065000000506f00000b
:104304007369000074690000760000004e650000c7
:104314006761000074690000760000004d610000d0
:10432400726b000065200000502f00004e0000005a
:1043340053700000616e00006e7500006e6700002f
:10434400004100006e660000616e000067730000ab
:10435400004d0000617200006b6500002d4d0000ef
:10436400617200006b650000005000006f73000074
:1043740069740000696f00006e6500006e00000043
:104384004d4d0000205000006f7300006974000060
:10439400696f00006e6500006e0000005265000049
:1043a40066650000726500007a0000005369000031
:1043b400676e0000616c0000006d00006f64000017
:1043c4006f00000061750000746f00006d610000f3
:1043d40074690000636f000000760000656c0000e3
:1043e4006f630000696400006164000000760000ef
:1043f400656c00003a000000746100006d6100000b
:104404006e6f00003a0000006d6500006e730000de
:10441400616a000065000000616c000061720000c8
:104424006d61000000460000616c000074610000d2
:10443400206400006520000073690000676e0000be
:104444006f000000566500006c6f00006369000097
:1044540064610000642000006c6500006e7400005c
:1044640061000000546500007374000020630000c4
:1044740061620000657a0000610000006578000058
:10448400706c00006f720000616400006f720000c5
:104494006120000065720000726f0000720000006d
:1044a4005465000073740000206500006e63000012
:1044b4006f64000065720000006500007272000005
:1044c4006f72000000460000617300006500000088
:1044d40061750000746f00006d6100007469000074
:1044e4006361000020650000727200006f720000ba
:1044f400004400006573000061720000726f0000e8
:104504006c6c00006f200000646500006c200000eb
:10451400436900006c6900006e640000726f000063
:104524002028000050310000290000006e6f0000b8
:104534006e200000616400006d6900007369000072
:10454400626c0000650000004573000070610000ab
:10455400636900006f20000064650000204c0000c7
:10456400656300007475000072610000202800007b
:104574005033000029000000416c0000617200000b
:104584006d6100000064000065730000636f00004b
:104594006e6f000063690000646f00000046000055
:1045a4006173000065200000636f00006e2000004e
:1045b4006f730000636900006c6f00007363000098
:1045c4006f700000696f0000004600006173000016
:1045d40065200000636f00006e200000636f000020
:1045e4007272000065630000636900006f6e000072
:1045f4002072000061700000696400006100000026
:104604006f730000636900006c6f00007363000047
:104614006f700000696f00000072000065670000a1
:1046240069730000747200006f0000007075000070
:1046340065730000746100002061000020630000c5
:10464400657200006f00000061750000746f000067
:104654006d6100007469000063610000006f000078
:1046640073630000696c00006f730000636f0000e7
:104674007000000061630000656c0000657200005a
:1046840061630000696f00006e0000006465000053
:1046940073610000727200006f6c00006c6f0000a8
:1046a40000630000696c0000696e00006472000021
:1046b4006f000000756d000062720000616c000004
:1046c400004500007370000061630000696f000022
:1046d4000067000061740000650000004469000088
:1046e40073740000616e00006369000061000000e3
:1046f40064650000206f00006666000073650000ba
:104704007400000043610000626500007a610000eb
:10471400006500006e6300006f64000065720000b5
:1047240000730000616c00006964000061730000a4
:104734000052000065670000697300007472000095
:104744006f0000004f730000636900006c6f00008d
:10475400736300006f700000696f00000041000087
:104764007263000068690000766f00000054000066
:1047740072610000626100006a6f00007300000053
:10478400667500006e630000696f00006e650000ce
:104794007300000050610000726100006d6500004c
:1047a400747200006f7300000073000065740000f1
:1047b4007570000020730000656e000063690000de
:1047c4006c6c00006f0000007365000074750000dd
:1047d40070200000746f0000746100006c00000021
:1047e40041630000656c00006572000061630000b5
:1047f400696f00006e0000004465000063650000fe
:104804006c65000072610000636900006f6e000057
:10481400006400006f6200006c650000206d000001
:1048240061720000636100000063000069720000af
:10483400633a00000074000072610000733a0000e3
:1048440000530000616c00007661000072000000fb
:104854005472000061620000616a00006f00000091
:1048640043610000726700006172000000430000b1
:104874006f6e0000747200006f6c00000052000044
:1048840065630000746f00002f560000657200001d
:10489400736f0000004300006f7200007465000035
:1048a400005000006c690000656700007565000039
:1048b4000050000065720000666f00007261000025
:1048c400636900006f6e0000007200006563000001
:1048d400746f00000076000065720000736f0000c2
:1048e40000720000656700006973000074720000c4
:1048f4006f20000072650000637400006f2f0000d9
:1049040076650000727300006f000000726500009d
:104914006769000073740000726f00002069000072
:104924006e7300006574000074650000720000007e
:10493400726500006769000073740000726f000004
:10494400206300006f7200007465000000720000b4
:104954006567000069730000747200006f20000036
:10496400706c000069650000677500006500000058
:10497400726500006769000073740000726f0000c4
:104984002070000065720000666f00007261000014
:10499400636900006f6e000000720000656700002c
:1049a40069730000747200006f20000072650000db
:1049b400637400006f000000726500006769000006
:1049c40073740000726f00002076000065720000ae
:1049d400736f000000530000656c00006563000005
:1049e400636900006f6e000000610000706c0000dd
:1049f4006963000061630000696f00006e000000dd
:104a04004d6100007263000061000000506f0000ff
:104a1400736900007469000076610000004e0000b4
:104a240065670000617400006976000061000000a1
:104a34004d6100007263000061200000502f0000ef
:104a44004e000000546500006e730000696f0000a2
:104a54006e000000496e0000696300006961000097
:104a64006c000000506f000073690000636900006f
:104a74006f6e000065730000006d0000617200003d
:104a8400636100002d6d000061720000636100002d
:104a9400005000006f73000069630000696f00003c
:104aa4006e650000732000004d4d00000072000090
:104ab4006566000065720000656e000063690000b1
:104ac40061000000736500006e6100006c0000006e
:104ad4006d6f0000646100006c6900007465000083
:104ae400006d0000616e0000756500006c00000040
:104af40061750000746f00006d610000746900004e
:104b0400717500006500000076690000746500009e
:104b1400737300006500000076690000743a0000b9
:104b240000740000616900006c6c0000653a0000cc
:104b3400006d00006573000073610000676500008c
:104b4400006100006c610000726d000065000000ef
:104b540050610000732000006465000020730000b1
:104b6400696700006e650000006200006173000068
:104b7400207600006974000065730000736500000e
:104b84000054000065730000742000006465000098
:104b9400006c000061200000746500007465000072
:104ba400206500007272000065750000720000004c
:104bb4006572000072650000757200000043000019
:104bc400616c0000676500002061000075740000de
:104bd4006f6d00006174000069710000756500006c
:104be40000440000696d0000656e000073690000f8
:104bf4006f6e0000206400007520000043790000ff
:104c04006c6900006e6400007265000020280000da
:104c14005031000029000000696e0000616300004b
:104c24006365000070740000616200006c65000040
:104c340000450000737000006163000065200000ff
:104c440064650000204c000065630000747500007a
:104c54007265000020280000503300002900000085
:104c6400416c0000617200006d650000006e000080
:104c74006520000070610000732000007265000070
:104c8400636f00006e6e0000750000006361000039
:104c94006c6100006765000020610000766500001b
:104ca400632000006f730000636900006c6c0000f7
:104cb4006f730000636f0000706500000063000004
:104cc400616c0000616700006520000061760000ef
:104cd40065630000207200006170000069640000d8
:104ce40065200000636f00007272000065630000bd
:104cf400746900006f6e0000006f000073630000b1
:104d0400696c00006c6f0000736300006f7000003a
:104d1400650000007265000067690000737400009c
:104d240072650000006d000065740000726500008b
:104d340020610000752000007a650000726f000099
:104d440000630000616c0000616700006500000002
:104d540061630000636500006c650000726100001f
:104d6400746900006f6e000000630000796c00003d
:104d7400696e000064720000650000007365000045
:104d8400756900006c000000616c00006172000035
:104d94006d00000045740000656e0000647500003d
:104da400650000004469000073740000616e000037
:104db400636500000073000075720000206f00003e
:104dc400666600007365000074000000546500000e
:104dd40074650000007300006f72000074690000c5
:104de40065730000005200006567000069730000ed
:104df40074720000650000004f73000063690000d6
:104e04006c6c00006f730000636f0000706500003d
:104e140000410000726300006869000076650000cc
:104e24007300000054720000617600006175000098
:104e340078000000466f00006e6300007469000093
:104e44006f6e00006573000000730000657400005d
:104e54007570000020730000696d0000706c000024
:104e64006500000073650000747500007020000088
:104e7400636f00006d7000006c650000740000003a
:104e8400646f0000756200006c650000206d000016
:104e94006172000071750000650000004d61000042
:104ea4006e750000656c000000740000656e000003
:104eb400733a00000053000061750000766500003d
:104ec4007200000054720000617600006169000005
:104ed4006c00000043680000617200006765000018
:104ee400004300006f6e0000747200006f6c0000dd
:104ef40065000000436f000075700000e9000000c9
:104f0400506c0000690000007265000070650000cc
:104f14007261000067650000207200006563000094
:104f2400746f00002f76000065720000736f00003c
:104f34000072000065700000657200006167000087
:104f440065200000696e0000736500007474000041
:104f54006572000000720000657000006572000058
:104f64006167000065200000636f00007570000039
:104f74006500000072650000706500007261000049
:104f840067650000207000006c690000007200007a
:104f94006570000065720000616700006520000014
:104fa40070650000726600006f720000617400009a
:104fb400696f00006e0000007265000070650000fb
:104fc40072610000676500002072000065630000e4
:104fd400746f0000007200006570000065720000cc
:104fe40061670000652000007665000072730000b0
:104ff4006f000000617000006c69000063610000d4
:10500400746900006f6e0000004d000061720000c2
:1050140071750000650000004e65000067610000c6
:1050240074690000660000004d61000072710000a8
:1050340075650000205000002f4e0000004900005c
:105044006e69000074690000616c0000005000008b
:105054006f73000069740000696f00006e730000d4
:10506400006d00006172000071750000652d000084
:105074006d61000072710000756500000050000051
:105084006f73000069740000696f00006e730000a4
:10509400204d00004d0000006d6f0000646f0000a3
:1050a4003a0000006d6100006e750000616c000044
:1050b40065000000766500006c6f00006369000005
:1050c400746100003a000000636900006c6900002c
:1050d4006e3a0000006d000065730000736100000b
:1050e40067670000696f00003a000000616c00000f
:1050f4006c610000726d0000653a0000004d000014
:10510400616e0000636100006e7a0000612000009f
:1051140073740000616d00007061000000560000af
:10512400656c00006f630000697400006127000073
:1051340020620000617300007361000000540000ed
:10514400657300007420000074650000737400002f
:10515400696e000061000000666100006c6c000074
:10516400697400006f000000466100007361000074
:105174007475000072610000206100007574000005
:105184006f6d00006174000069630000610000003d
:10519400666100006c6c000069740000610000002e
:1051a40053760000696c000075700000706f000099
:1051b40020430000696c0000696e00006472000006
:1051c4006f2000002850000031290000006e00000c
:1051d4006f6e0000206100006363000065740000ce
:1051e40074610000626900006c6500000041000009
:1051f4006d700000696500007a7a0000612000008b
:10520400476100007465000020280000503300004e
:10521400290000004e65000073730000756e0000e5
:1052240020700000726f0000626c0000656d000069
:1052340061000000416c00006c610000726d0000b0
:1052440065200000200000006e6f00006e2000004a
:1052540072690000636f00006e6f000073630000ea
:1052640069750000746f000000660000617300003f
:10527400617400007572000061200000636f00001b
:105284006e2000006f730000636900006c6c000006
:105294006f730000636f0000706900006f3a0000d4
:1052a4000066000061730000617400007572000004
:1052b4006120000061200000636f00007272000032
:1052c400657a0000696f00006e65000020720000be
:1052d4006170000069640000613a0000006f000022
:1052e40073630000696c00006c6f0000736300005e
:1052f4006f700000696f00003a00000072650000e2
:105304006769000073740000726f0000206d000074
:1053140061720000636100002d6d00006172000085
:10532400636100003a0000007265000067690000d4
:1053340073740000726f0000206d00006172000041
:10534400636100002d630000696c0000696e000059
:10535400647200006f3a0000004100007a7a000095
:1053640065720000616d0000656e0000746f0000de
:1053740000650000727200006f720000650000009a
:1053840046610000736100007475000072610000e2
:105394000046000061730000617400007572000033
:1053a400612000006164000000610000636300008c
:1053b400656c000065720000617a00000053000013
:1053c400766900006c750000707000006f000000ca
:1053d400536f0000676c0000696100000061000009
:1053e4006c6c0000617200006d65000000410000fb
:1053f4006d700000696500007a7a000061000000a9
:105404005665000072730000696f00006e6500004d
:105414000044000069730000746100006e7a0000ab
:105424006100000073750000206f000066660000d4
:10543400736500007400000074650000737400005c
:10544400696e00006100000075730000636900006c
:105454007465000000410000726300006869000088
:10546400766900006f0000004c610000766f000058
:105474007269000000460000756e00007a69000041
:105484006f6e00006900000050610000726100004e
:105494006d6500007472000069000000736500000f
:1054a4007475000070200000736500006d700000ca
:1054b4006c690000636500003a0000007365000039
:1054c4007475000070200000636f00006d700000b0
:1054d4006c650000746f00003a0000004163000036
:1054e400636500006c650000726100007a69000069
:1054f4006f6e0000650000004465000063650000f5
:105504006c650000726100007a6900006f6e000033
:105514006500000053650000676e00006f20000006
:10552400646f000070700000696f00000054000098
:1055340072610000733a00000054000069720000b8
:105544006f3a000000530000616c000076610000b7
:10555400006c0000617600006f7200006f000000b4
:10556400436100007269000063610000004c0000a8
:10557400617600006f7200006f000000436f00004e
:105584006e740000726f00006c6c00006f0000000d
:1055940042690000616e0000636100002f56000044
:1055a4006f6c00007461000000520000697000001c
:1055b400617300007361000067670000696f000099
:1055c40000540000616700006c6900006f00000077
:1055d400506900006567000061000000506500002c
:1055e400726600006f720000617a0000696f00004b
:1055f4006e65000000620000696100006e630000d7
:1056040061000000766f00006c740000610000000f
:10561400726500006769000073740000726f000017
:1056240020620000696100006e630000612f0000c9
:10563400766f00006c740000613a00000072000094
:105644006567000069730000747200006f20000039
:1056540072690000706100007373000061670000ec
:10566400676900006f3a000000720000656700007f
:1056740069730000747200006f2000007461000000
:10568400676c0000696f00003a000000726500005a
:105694006769000073740000726f000020700000de
:1056a40069650000676100003a000000726500004f
:1056b4006769000073740000726f000020700000be
:1056c40065720000666f0000726100007a69000074
:1056d4006f6e0000653a000000720000656700000c
:1056e40069730000747200006f200000626900009a
:1056f400616e0000636100003a0000007265000002
:105704006769000073740000726f00002076000067
:105714006f6c0000746100003a00000053650000e3
:105724006c6500007a6900006f6e0000650000007f
:1057340061700000706c000069630000617a000011
:105744002e00000053650000676e00006f2000000b
:10575400502f00004e00000054690000726f0000da
:10576400004900006e6900007a690000616c000065
:1057740065000000506f0000736900007a69000042
:105784006f6e000065000000506f00007369000038
:105794007a6900006f6e0000652000004d4d000026
:1057a400007200006966000065720000696d000007
:1057b400656e0000746f00000073000065670000f0
:1057c4006e6100006c650000000000002d4b0000bd
:1057d4006579000050610000642000003d20000055
:1057e400002800006f700000657200006174000002
:1057f400697600006f290000004100005243000058
:1058040048490000564500000076000020200000b2
:105814002020000020000000566500007273000084
:10582400696f00006e6500002053000057000000ff
:10583400496e000069740000696100006c69000031
:105844007a610000746900006f6e0000005000006f
:1058540061720000616d00006574000065720000f3
:10586400007000006861000073650000004d0000d6
:10587400616e0000756100006c000000466100006c
:1058840073740000206300006f72000072650000f2
:1058940063740000696f00006e0000006f73000005
:1058a400636900006c6c00006f730000636f00009c
:1058b400706500000050000068610000736500001e
:1058c4002077000069740000680000004175000042
:1058d400746f00006d6100007469000063000000d3
:1058e40068650000616400002074000065730000b6
:1058f4007400000053630000616e00006e690000d4
:105904006e670000007400006573000074000000fe
:10591400456e0000636f00006465000072000000c3
:105924004f7500007470000075740000730000006f
:10593400340000005465000073740000003500005a
:1059440000360000006400006f6e00006500000077
:105954005068000061730000650000004d610000a4
:1059640063680000696e0000652000006973000030
:1059740020730000746f0000707000006564000004
:1059840000450000727200006f7200000074000095
:105994006f6f000020680000696700006800000065
:1059a40045720000726f0000723a0000205300003c
:1059b4007065000065640000004d00006163000034
:1059c400686900006e650000206e00006f740000be
:1059d40020730000746f00007070000065640000a4
:1059e40000450000727200006f7200003a0000006f
:1059f40061750000746f00006d610000746900003f
:105a040063200000706800006173000065000000fe
:105a140045720000726f000072200000696e000081
:105a2400006400006f750000626c000065200000d7
:105a34006d610000726b000000450000727200008e
:105a44006f720000206900006e2000007363000084
:105a5400616e00002e000000656e0000636f0000a0
:105a64006465000072200000746500007374000017
:105a74000056000069730000756100006c000000ae
