:020000040000fa
:080000000002040000000000f2
:020000040000fa
:10040000cf8820000e7f22000e018800000000002f
:100410000c00070000792000010020001f000700e9
:10042000000020000000e000020032000000020096
:1004300000000000d0280200000000000040da00a8
:100440000000fe004440a900602020000000e00001
:100450000300320000002000a00188004440a800f2
:1004600000000600f03fb1000180b1000600350039
:10047000ee03090000000000403fb1000180b10020
:10048000fbff3d001000b000203fb000020035002f
:1004900000800900000000000000060091018800b3
:1004a000800078000000eb0015003700e28040007b
:1004b00032a0b4009101ba00e280400032a0b40042
:1004c0009102ba00e280400032a0b4000002eb00ca
:1004d000472bde00f507b200602ce10004003a0073
:1004e0000059eb008301e900fdff3e0004003700e6
:1004f0006128e100010032000082eb0004000700e7
:100500001101ba000200e000e8ff3a000000060016
:100510003159ba008301e9000c0032002159ba00b8
:100520008301e900080032000400e00003003a0003
:10053000e280400032a0b400f5ff370011d9ba00c4
:100540008301e900faff3a008100e800e180400001
:1005500032a0b400000006000040da000000fe00f7
:10056000889fbe008a9fbe00010578000100e00060
:100570000400350008003c000000e00020003200cc
:100580000500370060001000e080180002003b000a
:1005900001f02c001a0037000004be006011b80002
:1005a0006b0920000982cf00020039000882cf00c9
:1005b0000441b000694252000e00320008003b00c6
:1005c00082817100610164008904d1000884d30034
:1005d0008b05e8000442e800f9ff3a000500370007
:1005e0000804440089844c008b05e9000442e900ba
:1005f000fbff3a00f40007000af0a70001f0a0009a
:100600004f05be004f04be000000060003f0a2002c
:10061000889fbe008a9fbe008c1f780010010700d3
:10062000170133006450e1004f0032006420e10004
:100630005200320003826c0007003b000905d00025
:100640000306d000820f54000c065d000200390042
:100650000200320089017800030678008582550087
:1006600004003d000003fd008103fd008502ea0057
:100670008b854200840f720002003b006000100076
:10068000e08018006011b8000005eb007a28e10056
:100690000a00390006007800c75ddd00f707b200e8
:1006a000878075002d003700828171000a01780073
:1006b000610560008180d1000080d3008502e900df
:1006c000f9ff3b00060440008784480002003b001d
:1006d00060041400e0841c000988a30007003200b5
:1006e0008a81710082817100610164008904d100f6
:1006f0000884d3008b05e800170037000978a300b1
:1007000013003a000b00e000130034008b05e900f1
:100710000804440089844c000a4474000978a3004a
:100720000d003a000b00e000070034008b05e900e3
:100730000804440089844c0001003a000b002000aa
:100740000978a300f7ff32000001eb000200370038
:10075000828171000a0178009b0007000cf0a7005d
:1007600001f0a000cf0037006420e10002003a0051
:10077000838f6c00cf0033000801be000200be0072
:10078000c8003700889fbe008a9fbe008c1f78007b
:10079000b3000700ba00330003866c006450e10028
:1007a000240032006420e100270032006150e100a3
:1007b000220032006120e100210032008b854200de
:1007c000eb07b1000134b800003ab8000804420059
:1007d00089844a00013ab8000030b800888040009f
:1007e00009014a00040033000000400081804800f5
:1007f000020149008b05e900c909dd008301700091
:100800000100320013002000c814de004814dd008f
:100810004709de001200b200c808de00088470003c
:100820006900070001f0a1000cf0a70001f0a00092
:100830009c0037006120e1009e0032000801be00ec
:100840000200be00f7ff37006150e100fcff3a00f4
:1008500098003700889fbe008a9fbe008c1f7800da
:100860007f0007008600330003866c006450e100bf
:100870002e0032006420e100330032006150e100bc
:100880002f0032006120e1003100320085855500e3
:10089000eb07b00009002000080420000500370025
:1008a0000804440089844c000a0031000603430018
:1008b00087834b000001530081815b00f8ff330008
:1008c0000203be000800a0000804440089844c0014
:1008d000f6ff3900c639dd008301730001003200e4
:1008e000130020008904d1000884d3000998a300d4
:1008f000050032000800a7000300a0008904d10011
:100900000884d3008b05e8008904d1000884d30053
:100910000001eb000281d2002b00070001f0a100d2
:100920000cf0a70001f0a0005e0037006420e10099
:10093000600032000801be000200be00f7ff370071
:100940006120e1005b0032006000b800f3ff370077
:100950000000200001f82700f0ff37000001be0072
:10096000570007000470a70003f0a10003f8a300dc
:1009700013003a006509b10010003200090035008b
:100980006928e10002003500010028000000050090
:1009900000004000818048008502e900fcff3a0029
:1009a00000000600f88f4200050035008100d100ec
:1009b0000080d3008502e800fcff3a00000006003a
:1009c0008000eb00000005008100200061805500e0
:1009d0000b003d000b00200061fe2f000100e10034
:1009e0001d00340082817100610164008904d1001e
:1009f0000884d3000000e800faff3a0071002000ec
:100a00006100640003007000020060000900320011
:100a100061044400e0844c000988a5000500320010
:100a20008b05e8006808e10002003a008904d10063
:100a30000884d300f20f20000258e10005003d00b9
:100a4000c75ddd00f907b2008980750008007800f5
:100a5000000006000bf827008b007800000005005e
:100a60000004be00160007000003be000405be001f
:100a70000200be0012000700844f7500000006004f
:100a80000200be006450e100050036006420e10071
:100a9000020036000968a30001003a000800be0009
:100aa0000160a0004f0678004f05be004f04be0055
:100ab00000000600f0ff2f00f1ff2700f9ff3700cc
:100ac000c70ade00f107b200f50fb20008003200dd
:100ad000e1cf4200020032000170a00024000500b6
:100ae000810f700001003200040805004400050079
:100af000810f700002003a00140005008502e90031
:100b00000000400081c04800fcff3b000170a000d5
:040b100024000500b8
:020000040000fa
:0200000401f009
:04000c00faff0000f7
:020000040000fa
:0200000401f009
:040010001eff0000cf
:020000040000fa
:0200000401f009
:040014007fff00006a
:020000040000fa
:10000800ac020000263800003638000046380000f0
:100018005638000066380000ac020000ac02000050
:10002800ac020000ac020000ac020000ae360000da
:10003800ac020000ac020000ac020000ac02000000
:10004800d8370000ac020000ac020000ac0200008f
:10005800ac020000ac020000ac020000ac020000e0
:10006800ac020000ac020000ac020000f836000050
:10007800ac020000ac020000ac020000ac020000c0
:10008800ac020000ac020000ac020000d436000054
:1000980084310000ac020000ac020000ac02000099
:1000a800ac020000ac020000ac020000ac02000090
:1000b800ac020000ac020000ac020000ac02000080
:1000c800ac020000ac020000ac020000ac02000070
:1000d800ac020000ac020000ac020000ac02000060
:1000e800ac020000ac020000ac020000ac02000050
:1000f800ac020000ac020000ac020000ac02000040
:10010800ac020000ac020000ac020000ac0200002f
:10011800ac020000ac020000ac020000ac0200001f
:10012800ac020000ac020000ac020000ac0200000f
:10013800ac020000ac020000ac020000ac020000ff
:10014800ac020000ac020000ac020000ac020000ef
:10015800ac020000ac020000ac020000ac020000df
:10016800ac020000ac020000ac020000ac020000cf
:10017800ac020000ac020000ac020000ac020000bf
:10018800ac020000ac020000ac020000ac020000af
:10019800ac020000ac020000ac020000ac0200009f
:1001a800ac020000ac020000ac020000ac0200008f
:1001b800ac020000ac020000ac020000ac0200007f
:1001c800ac020000ac020000ac020000ac0200006f
:1001d800ac020000ac020000ac020000ac0200005f
:1001e800ac020000ac020000ac020000ac0200004f
:0801f800ac020000ac020000a3
:020000040000fa
:10020800ac020000783800008838000098380000f8
:10021800a8380000b8380000ac020000ac020000aa
:10022800ac020000ac020000ac020000ae360000d8
:10023800ac020000ac020000ac020000ac020000fe
:10024800d8370000ac020000ac020000ac0200008d
:10025800ac020000ac020000ac020000ac020000de
:10026800ac020000ac020000ac020000f83600004e
:10027800ac020000ac020000ac020000ac020000be
:10028800ac020000ac020000ac020000d436000052
:1002980084310000ac020000ac020000ac02000097
:1002a800ac020000ac020000ac020000ac0200008e
:1002b800ac020000ac020000ac020000ac0200007e
:1002c800ac020000ac020000ac020000ac0200006e
:1002d800ac020000ac020000ac020000ac0200005e
:1002e800ac020000ac020000ac020000ac0200004e
:1002f800ac020000ac020000ac020000ac0200003e
:10030800ac020000ac020000ac020000ac0200002d
:10031800ac020000ac020000ac020000ac0200001d
:10032800ac020000ac020000ac020000ac0200000d
:10033800ac020000ac020000ac020000ac020000fd
:10034800ac020000ac020000ac020000ac020000ed
:10035800ac020000ac020000ac020000ac020000dd
:10036800ac020000ac020000ac020000ac020000cd
:10037800ac020000ac020000ac020000ac020000bd
:10038800ac020000ac020000ac020000ac020000ad
:10039800ac020000ac020000ac020000ac0200009d
:1003a800ac020000ac020000ac020000ac0200008d
:1003b800ac020000ac020000ac020000ac0200007d
:1003c800ac020000ac020000ac020000ac0200006d
:1003d800ac020000ac020000ac020000ac0200005d
:1003e800ac020000ac020000ac020000ac0200004d
:0803f800ac020000ac020000a1
:020000040000fa
:100b140000000000e8fd0000c4090000000000001f
:100b2400e8fd0000e001000000000000e8fd000016
:100b34004800000001000000050000000100000062
:100b4400010000000400000001000000000000009b
:100b5400050000000000000049740000616c000002
:100b6400696100006e6f0000004500006e670000c0
:100b74006c690000736800002000000046720000e9
:100b8400616e0000636100006973000000440000ae
:100b940065750000747300006368000020000000a5
:100ba40045730000706100006e6f00006c2000004f
:100bb400004600007265000071750000656e00005b
:100bc4007a0000004672000065710000756500003f
:100bd4006e63000000430000696c0000696e000051
:100be400647200006f000000437900006c6900002b
:100bf4006e6400006572000000430000796c000020
:100c0400696e000064720000650000005a790000fb
:100c14006c6900006e6400006572000000560000fc
:100c2400656c00006f6300006974000061000000df
:100c3400537000006565000064200000202000005f
:100c440000560000697400006573000073650000bd
:100c5400200000004765000073630000687700000f
:100c6400696e000000560000656c00006f630000b0
:100c740069640000610000004c6900006e670000b8
:100c8400756100003a200000004c0000616e000015
:100c94006775000061670000650000004c6100009a
:100ca4006e670000756500002020000000530000fe
:100cb400707200006163000068650000200000009d
:100cc4004c6500006e670000756100002020000084
:100cd400005200006970000065740000697a000029
:100ce400690000005265000070650000746900002e
:100cf4007469000000570000696500006465000025
:100d0400726800006f00000052650000706500000a
:100d14007469000063690000004c00007563000002
:100d24006520000020200000200000004c69000025
:100d3400676800007420000020200000004c0000c0
:100d4400756d0000696500007265000020000000f8
:100d54004c6900006368000074200000202000003b
:100d6400004c0000757a00002020000020200000c4
:100d740020000000426100007474000065720000ed
:100d840069610000004200006174000074650000a5
:100d940072790000200000004261000074740000b9
:100da4006572000069650000004200006174000083
:100db40065720000696100002000000053630000b8
:100dc400617200006963000061200000004c0000b3
:100dd4006f77000020200000202000002000000089
:100de40046610000696200006c650000202000007c
:100df40000420000616a0000612000002020000021
:100e0400200000005472000069670000676500005c
:100e14007220000000450000787400006572000034
:100e24006e6100006c00000044e90000636c000087
:100e3400656e0000636800000045000078740000df
:100e4400657200006e6500007200000044690000d5
:100e540073700000617200006f2000000045000004
:100e640073740000657200006e6f000020000000c3
:100e74004578000074650000726e00006520000073
:100e84000045000078740000657200006e6f000079
:100e9400200000003f3f00003f3f00003f3f0000b4
:100ea400000000005a6500006c6f0000204500003f
:100eb4006c65000074740000726f00006e690000bd
:100ec4006361000000540000616a000020530000c8
:100ed400747200006f6200006f200000762e000024
:100ee40031300000350000006d4800007a00000039
:100ef4006d7400002f6d0000002000006d6d000077
:100f040020000000780000002020000020200000c5
:0c0f140020000000202000002000000051
:020000040000fa
:104000000600fa0042c0bf000080fb004500de0051
:104010000080fb00200798009002800010079800a5
:10402000ff3ffc00210420009140780000ceb30047
:1040300000c0700042e0b7001e00900090028800af
:10404000580c070090028000000f7800ff3ffc0032
:104050002e00900067406000c500dd0042c0bf0038
:104060007f4060000140700042e0b7001e00780011
:10407000900288000080fa00000006000c00fa00a0
:104080006047980071479800024f980032c0bf0007
:104090000080fb00000f7800028020000300200059
:1040a0006e4090008080fb0000c020000088b900b6
:1040b0000100200002014000838148007e40900002
:1040c0000080fb004a00dd000100200002004000eb
:1040d000838048004008de000100200032e0b70085
:1040e0000080200001002000000178006e40900058
:1040f0000080fb006300b900800078007e409000e3
:104100000080fb00008040004a00dd00000041000c
:10411000200798002e0090001e0c070080407800b9
:1041200000c0eb0000c06000304798000e489000cf
:104130000080fb00500798005e009000f30f5000d5
:104140000d0032005e009000f40f500010003200ad
:104150005e009000f20f50000100320012003700a4
:104160003e4090000080fb00640060004280de0062
:10417000204798000e0037003e4090000080fb0072
:10418000680060004380de00204798000800370088
:104190003e4090000080fb00700060004480de0024
:1041a00020479800020037000040eb0020479800ad
:1041b0001e00780032e0b7002e4090000080fb0027
:1041c0000080fa00000006000600fa004047980050
:1041d0005147980032c0bf000080fb00000f7800fc
:1041e00002802000030020004e4090008080fb00f1
:1041f00000c020000088b90001002000020140003a
:10420000838148005e4090000080fb004a00dd0092
:104210000100200002004000838048004008de00ca
:104220000100200032e0b70020042400003b880099
:104230000080200001002000000178004e40900026
:104240000080fb006300b900800078005e409000b1
:104250000080fb00008040004a00dd0000004100bb
:10426000100798009e0090001e009000de0b0700d3
:1042700063ff07001e00780032e0b7000080fa00fc
:10428000000006000c00fa00204f98000000eb0030
:104290004007980032c0bf000080fb00000f78008c
:1042a0000000eb0030079800030037003e0090004c
:1042b0000000e800300798003e009000e20f500038
:1042c00007003c003e0090008040780032c1b300ff
:1042d0002e48900069ff0700e10f5000f3ff320005
:1042e00002802000030020002e4890008080fb0008
:1042f00000c020000088b900010020000201400039
:10430000838148003e0090004a00dd00010020004b
:1043100002004000838048004008de0001002000c9
:1043200032e0b7000080200001002000000178008a
:104330002e4890000080fb006300b90080007800e8
:104340003e009000008040004a00dd000000410077
:10435000100798004e0090000080e8004007980089
:104360001e0090000080e800100798001e009000da
:10437000880b07008040780000c0eb0000c06000a0
:1043800040479800ce009000f03f2000808f500002
:1043900003003c004e409000e14f4000edff3a002a
:1043a000ce00900000402000808f500002003a00b4
:1043b0000000eb00400798001e00780032e0b700d4
:1043c0004e0090000080fa00000006001600fa007f
:1043d000881f78002057980032c0bf000080fb0083
:1043e000600798000000eb00000f98000300370002
:1043f0000e0890000000e800000f98000e089000e2
:10440000e20f500007003c000e089000804078004a
:1044100032c1b3002e50900018ff0700e10f50008a
:10442000f3ff32000e089000e30f500006003a0040
:104430006e00900032e0b7008a68a80030002000cb
:10444000200f9800630137000e0890000000e8007c
:10445000700798007e009000e30f500015003a00ae
:104460000000eb0070079800120037007e009000fb
:104470000000e800700798007e009000e30f5000f5
:1044800002003a000000eb0070079800fe00900068
:104490000e089000808f500006003a006e009000d9
:1044a00032e0b7008a28a80010002000200f9800f2
:1044b000480137007e0090008040780042c1b30080
:1044c0002e509000edfe07000000e000e7ff3200f4
:1044d00002802000030020002e5090008080fb000e
:1044e00000c020000088b900010020000201400047
:1044f000838148007e0090004a00dd00010020001a
:1045000002004000838048004008de0001002000d7
:1045100032e0b70000802000010020000001780098
:104520002e5090000080fb006300b90080007800ee
:104530007e009000008040004a00dd000000410045
:10454000400798002e5090004eff07000000e0004a
:10455000010032008a48a8008ac8bf00004f7800d6
:104560008a08a9000000eb00300798001000240022
:10457000003b8800ce0090000080eb001a0b070083
:10458000ce009000f00f2000130b07004e009000ab
:104590000080e800400798000040eb00404798008a
:1045a0003e0090000000e80030079800340037001b
:1045b0002e5090008080fb00f00f20000088b90092
:1045c000800078004e4090000080fb00008040009a
:1045d000b40107001007980050448000610060009b
:1045e0000000e000020032008a08a9000d00370038
:1045f0001e009000ce009000fb0a07004e40900085
:104600000080fb00ce009000f30a07004e009000ef
:104610000080e800400798003e0090000000e8009d
:10462000300798004e4090000040e8004047980056
:104630000c003700ce0090000080eb00ea0a070073
:10464000ce009000f00f2000e30a07004e0090001b
:104650000080e800400798003e0090000000e8005d
:10466000300798004e409000e14f400004003a00af
:10467000be009000f0032000808f5000edff34005a
:104680004e409000e14f400004003200be00900018
:10469000f0032000808f5000c5ff340058fe070053
:1046a0000000eb00300798004e409000e14f4000c2
:1046b000f3ff3a001e4078008ae8b700028020002d
:1046c000030020002e5090008080fb0000c02000de
:1046d0000088b900010020000201400083814800e9
:1046e0007e0090004a00dd00010020000200400032
:1046f000838048004008de000100200032e0b7005f
:104700000080200001002000000178002e50900061
:104710000080fb006300b900800078007e009000fc
:10472000008040004a00dd00000041000080e800f9
:1047300040079800ce0090004e0090000000e80076
:104740004007980001007800920a0700404798004f
:10475000ce0090004e0090000000e8004007980056
:10476000010078008d0a070010079800210037002b
:104770002e5090008080fb00f00f20000088b900d0
:10478000800078004e4090000080fb0000804000d8
:1047900044010700800078001e009000808f5000c8
:1047a000060032006e00900032e0b7008ae8a800f0
:1047b00070002000200f980086003700ce00900087
:1047c0004e0090000000e8004007980001007800cb
:1047d000700a070040479800ce0090004e009000fd
:1047e0000000e80040079800010078006b0a07000d
:1047f000100798004e409000e14f4000dcff3a0067
:104800000080200001002000000178002e50900060
:104810000080fb006300b900800078000e08900063
:10482000008040004a00dd00000041005007980071
:104830000080200001002000000178002e50900030
:104840000080fb006300b900800078007e009000cb
:10485000008040004a00dd00000041004007980051
:1048600002802000030020002e5090008080fb007a
:1048700000c020000088b9000100200002014000b3
:10488000838148000e0890004a00dd0001002000ee
:1048900002004000838048004008de000100200044
:1048a00032e0b7005e0090003c0a07001007980055
:1048b0005e009000370a0700404798007e00900095
:1048c0000000e00003003a001e0090000000e80035
:1048d000100798001e009000e30f500005003600fe
:1048e0008a28a800f0ceb300ce40900000c060003f
:1048f0004047980002802000030020002e509000c6
:104900008080fb0000c020000088b900010020006a
:1049100002014000838148007e0090004a00dd00d3
:104920000100200002004000838048004008de00b3
:104930000100200032e0b7004e4090000080fb00f4
:10494000ce009000240a07001e009000ce009000c8
:10495000250a070030002400003b8800a8fd07005e
:104960004e4090000084fb004e009000090a0700b2
:10497000800f540006003a004e009000070a07001e
:10498000800078001e009000808f500006003200ea
:104990006e00900032e0b7008ae8a80070002000a6
:1049a000200f98000b0037000e0890008040780020
:1049b0002e50900004fe07006e00900032e0b70019
:1049c000504480000000d100614060000080fb0086
:1049d000200f98002e0890004f0478000080fa0005
:1049e000000006000e00fa0032c0bf000080fb008d
:1049f0004007980000802000010020004008de00f1
:104a00000100200032e0b7000040eb00004f7800ca
:104a10009c0037000040eb00304f98000040eb0056
:104a2000204f98000000eb00100798000000eb00fa
:104a300030079800030037003e0090000000e800b7
:104a4000300798003e009000e20f500007003e0043
:104a50003e0090008040780042c1b3001e407800c4
:104a600086fd07000000e000f3ff32003e009000ea
:104a7000e30f500006003a004e00900032e0b7000d
:104a80008a28a800100020006007980082003700e4
:104a90000000eb00300798000d0037003e0090004a
:104aa0008040780032c1b3001e40780073fd0700db
:104ab0000000e00003003a003e4890000040e8009b
:104ac000304f98003e0090000000e800300798004a
:104ad0003e009000e20f5000f0ff36003e4890008c
:104ae0000004e00022003a008040eb001e40780005
:104af000b5fd070002802000030020009e80fb001f
:104b000000c020000088b900010020000200400021
:104b1000838048004008de000100200032e0b7003a
:104b20000080200001002000000178009e80fb0032
:104b300000c020000088b900000041002007980054
:104b400030002400003b8800ae0090000000eb0025
:104b5000a5090700ae009000300f20009e09070055
:104b600027fd07004e00900032e0b70044003700f8
:104b70003e489000e14f500003003a004e00900084
:104b800032e0b7003e0037003e489000e24f500050
:104b900035003a0032c1b30021c0b3001e40780096
:104ba00036fd07000000e0000b003a0032c1b30000
:104bb0008040eb001e40780030fd07000000e00060
:104bc00005003a0020002000300798000040eb006c
:104bd000204f9800180037000000eb0030079800c5
:104be000030037003e0090000000e8003007980006
:104bf0003e0090008040780032c1b3001e40780033
:104c00001efd0700e10f500003003a003e00900037
:104c1000e20f5000f3ff36003e0090000040e80035
:104c2000204f98002e489000e34f500002003a00b9
:104c30000040eb00204f9800ae4890001e407800e6
:104c400061fd07001e4078008efd07000000e000b7
:104c500002003a001e407800dcfd07004e00900084
:104c600032e0b700060037004e00900032e0b70097
:104c70008ac8a8006000200060079800060037007e
:104c80001e4fe80010c0b3009e4f100061ff3600b9
:104c90000000eb00600798006e0090000080fa00b2
:104ca000000006001000fa0060079800ee00900077
:104cb000d01f2000808f5000040036008aa8a80072
:104cc0000080eb0070079800670037006e009000ce
:104cd000f20f2000110009000280d800004f780078
:104ce00032c0bf000080fb00500798000000eb00be
:104cf00040079800030037004e0090000000e800d5
:104d0000400798004e009000e20f500007003e0060
:104d10004e0090008040780032c1b3001e40780001
:104d2000d6fc0700e10f5000f3ff32004e00900068
:104d3000e30f500006003a005e00900032e0b7003a
:104d40008ac8a8000080eb00700798004600370072
:104d500002802000030020009e80fb0000c0200095
:104d60000088b90001002000020140008381480052
:104d70004e0090004a00dd000100200002004000cb
:104d8000838048004008de000100200032e0b700c8
:104d90000080200001002000000178009e80fb00c0
:104da00000c020000088b900800041004e00900043
:104db0004a00dd0000804000e03fb000300798006e
:104dc00000202000100798003e009000f108070026
:104dd000200798003e0090000080e900300798000e
:104de0001e0090000000e900100798001e009000cf
:104df0000000e000090032006e009000f20f200079
:104e0000110009000280d8008000fd0080007800b9
:104e10002e009000808f5000ebff3a001e009000a3
:104e20000000e00006003a008a08a8005e0090003a
:104e300032e0b7000080eb00700798000a003700ee
:104e40003e0090000080e800300798003e0090008f
:104e5000d2080700200798005e00900032e0b700fb
:104e60002e009000700798007e0090000080fa00ed
:104e7000000006001400fa0070079800010f980067
:104e80008e089000d01f2000808f50000400360054
:104e90008aa8a80050002000100f9800bd0037001d
:104ea0000e089000f20f2000110009000280d800c7
:104eb000000f780032c0bf000080fb005007980050
:104ec00030002400003b88000000eb004007980001
:104ed000030037004e0090000000e80040079800f3
:104ee0004e009000e20f500007003c004e00900082
:104ef000804078001e00780032c1b3005ffc0700dc
:104f0000e10f5000f3ff32004e009000e30f50001d
:104f100006003a005e00900032e0b7008ac8a800a0
:104f200060002000100f98009a00370002802000d7
:104f3000030020009e00780000c020000088b90017
:104f40000100200002014000838148004e009000d3
:104f50004a00dd000100200002004000838048007c
:104f60004008de000100200032e0b7000080200091
:104f700001002000000178001e0078006300b900e5
:104f8000800078004e009000008040004a00dd0064
:104f900000004100300798008ac8bf0020479800f1
:104fa0000e0890003fff0700800078007e00900010
:104fb000808f50000b003a00504480006100600078
:104fc0000000e00007003a005e00900032e0b70009
:104fd0002e4090008ae8b7000000eb00100f980008
:104fe0006c0037002e4090008ae8b7001e00780061
:104ff000a4fc0700200798002e0090000000e000ad
:1050000006003a005e00900032e0b7008a88a800ef
:1050100040002000100f98005e003700be00900096
:105020002e00900000804000300798007e00900025
:10503000be0090006c0807000e089000f20f2000e0
:10504000110009000280d8008000fd00be00900021
:1050500061080700eafb07000000000000000000f4
:105060003e0090004d0807008040780000c0eb0033
:1050700000c06000404f98004e4890000081fb0047
:10508000fe009000f00f200000806000800f5100b3
:10509000060032005e00900032e0b7008ae8a80007
:1050a00070002000100f98003a0037003e0090007a
:1050b000380807008040780000c0eb0000c06000a6
:1050c000404f98004e4890008080fb000e089000f2
:1050d000f20f2000811f7800110009000280d80023
:1050e0000001780001007800cf007800808f500028
:1050f000060032005e00900032e0b7008ae8a800a7
:1051000070002000100f9800220037003e00900031
:105110000000e800300798003e0090001f080700dc
:105120004880de008040780000c0eb0000c06000d6
:10513000404f98004e4890000081fb007e00900098
:10514000c800de00f00f200000806000800f5100da
:10515000060032005e00900032e0b7008ae8a80046
:1051600070002000100f98000a003700ae00900079
:10517000e03f2000808f500002003a001e007800bf
:1051800092fc07005e00900032e0b7000000eb00e8
:10519000100f98001e0890000080fa000000060022
:1051a0000200fa0020000700cac2bf000042b2009d
:1051b0000004e00004003a005e000700ab060700b0
:1051c0009660a800ffff3700f0438000b801070099
:1051d0005e0707000004e000fbff320084c8bf0048
:1051e000e44f50000300360040c0b300004f780089
:1051f0000900370084c8bf00e34f500003003a00a5
:105200000040eb00004f78000300370084c8bf0067
:105210000040e800004f78001e407800970107002a
:1052200067000700e8ff37000000fa000080eb008d
:10523000601988000000eb00201688001000200094
:10524000001688000000eb0060168800000e2600a3
:10525000401688006b60a8006b00a8006300a800df
:1052600040012000010020009205070066050700ac
:105270001e020700c2c2bf00614060000004e000df
:1052800001003a0039000700ec060700310607006c
:105290000040eb00b0000700cac2bf0001c8b30065
:1052a000014060000004e00003003a0040c0b30089
:1052b00072010700020037000040eb006f01070099
:1052c000030007003e0007000080fa00000006000f
:1052d0000200fa006e040700407528001f05070051
:1052e0005e040700507628001c050700001c2e00f5
:1052f000410e20005bec07000040eb00004f7800ff
:105300000700370011c0b3000040eb006d04070038
:1053100000482800e101200052ec07001e4fe80081
:10532000e0c0b3009e4f1000f6ff36000080fa0088
:10533000000006000200fa0055040700b0ccb300dc
:105340001a0307000505070044040700c0ccb3009a
:105350001603070001050700001c2e00410e200067
:1053600040ec07000080fa00000006000200fa008e
:105370004704070090ccb3000c030700f7040700b4
:1053800036040700a0ccb30008030700f3040700ad
:105390000040eb00004f7800040037000048280070
:1053a000e10120002fec07001e4fe800d0c1b30040
:1053b0009e4f1000f9ff36000080fa000000060042
:1053c0000400fa0050c0b30078020700004f7800d4
:1053d00084c8bf000080fb00100798001e009000ea
:1053e000e20f5000200032001e009000e20f50003b
:1053f00007003c001e0090000000e0000e0032009c
:105400001e009000e10f50002300320050003700d2
:105410001e009000e40f5000420032001e00900079
:10542000e40f5000280035001e009000e50f5000ea
:105430003300320046003700150407000040eb003f
:10544000da020700c5040700040407000040eb006f
:105450005602070051c0b300da0407006077280045
:10546000be0407003a0037000904070020c0b3005b
:10547000ce020700b9040700f803070020c0b300fc
:105480004a02070041c0b300ce040700a0772800fd
:10549000b20407002e003700fd03070010c0b30060
:1054a000c2020700ad040700ec03070010c0b30000
:1054b0003e02070041c0b300c2040700f077280095
:1054c000a604070022003700f103070030c0b30034
:1054d000b6020700a1040700e00307004078280097
:1054e0009e04070030c0b3003002070021c0b300a3
:1054f000b4040700607828009804070014003700ff
:10550000e303070050c0b300a8020700930407009c
:10551000d203070080ccb300a40207008f04070069
:105520000b003700da03070040c0b3009f020700fa
:105530008a040700c903070040c0b3001b0207002c
:1055400051c0b3009f040700c078280083040700ff
:105550000080fa00000006002a00fa00889fbe00c2
:10556000604f98000040eb0010020700010020008f
:10557000500798006107980020c0b3000b02070095
:1055800001002000300798004107980010c0b300c8
:10559000060207000100200010079800210798006c
:1055a00030c0b30001020700004f78006e48900041
:1055b0000080fb00401798004e1090000000e000b3
:1055c00004003200ce109000e28f50004b003200f9
:1055d0008a0037003e009000ce009000e00f50009f
:1055e000e08f5800060035003e009000ce0090008d
:1055f000dbeb0700201798003117980017003700e1
:105600003e009000ce009000610160006000b80094
:105610000300200002007000838070003e019000b3
:10562000ce0190008301d1000281d30002007000fe
:1056300083807000caeb070020179800311798008c
:105640002e119000be1190002e109000be10900000
:10565000efeb0700201798003117980052552300f0
:10566000236824002e109000be10900045ec070027
:105670000004be001e80fb00cf80de00b8eb0700f8
:105680000001be000800be003eec070000179800b5
:105690001117980010c0b300c4010700000478007f
:1056a0006140b900aeeb0700600f9800710f9800e1
:1056b0000800e00007003d000200200003782400fd
:1056c0006e089000fe089000d1eb0700600f980074
:1056d000710f98006e099000fe0990000e10900066
:1056e0009e1090005bec07009cec070080007800a7
:1056f0000040eb00ea010700400037009e009000e8
:105700005e0090000009b800420f9800530f980007
:105710009e0090006e0090000088b9005e09900025
:1057200000014100de0090002e0090000088b900ca
:1057300000014100520f98004e0a9000de0a9000ce
:10574000e00f5200e08f5a00060035004e0890002e
:10575000de08900082eb0700200f9800310f9800c0
:10576000160037004e089000610160006000b8002c
:105770000300200002007000838070004e0a900039
:10578000de0a90008501d1000481d3000200700080
:105790008380700072eb0700200f9800310f980093
:1057a0002e099000be0990002e089000be089000bf
:1057b00097eb0700200f9800310f980022882a00ed
:1057c000b38723002e089000be089000edeb070081
:1057d0000004be001e80fb00cf80de0060eb0700ef
:1057e0000001be000800be001aec07005bec0700d9
:1057f0008000780020c0b300a90107000040eb0042
:105800006a010700000478006140b90054eb07000a
:10581000000f9800110f98000800e00007003d00fd
:1058200002002000037824000e0890009e089000db
:1058300077eb0700000f9800110f98000e099000f9
:105840009e099000902f200051c1240001ec070018
:1058500042ec070010088800010880001008800052
:10586000808f5000020039000000eb000008880023
:105870004f04be000080fa00000006000200fa009b
:10588000004f78001e40780084e8b7001e40780082
:1058900046010700304488003044800000448800fe
:1058a00030448000200f88000080fa0000000600cd
:1058b0000600fa0010079800314480001e00900096
:1058c000808f5000870032001e009000000f78008b
:1058d0001e0090003044880084c8bf000080fb0098
:1058e000200798002e009000e20f500020003200a8
:1058f0002e009000e20f500007003c002e009000a8
:105900000000e0000e0032002e009000e10f500079
:10591000230032006d0037002e009000e40f50008d
:10592000530032002e009000e40f50002800350094
:105930002e009000e50f50003d003200630037005c
:105940009e00900000a62e00808f500002003600be
:105950000000eb001007980084c8bf009e00900074
:105960004f01070020c0b300fbfe070057003700bf
:105970009e00900000a62e00808f5000020036008e
:105980000000eb001007980084c8bf009e00900044
:10599000430107000040eb00effe07004b0037001b
:1059a0009e00900000a62e00808f5000020036005e
:1059b0000000eb001007980084c8bf009e00900014
:1059c000370107000040eb00e3fe07003f0037000f
:1059d0009e00900000a62e00808f5000030036002d
:1059e00050002000100798000b0037001e009000a8
:1059f0000000e00003003a0050002000100798006b
:105a0000050037001e009000e50f50000200360030
:105a1000100020001007980084c8bf009e0090006e
:105a20001f0107000040eb00cbfe070027003700f6
:105a30009e00900000a62e00808f500003003600cc
:105a40004000200010079800050037001e0090005d
:105a5000e40f5000020036000000eb001007980031
:105a600084c8bf009e0090000d010700170037009a
:105a70009e00900000a62e00808f5000030036008c
:105a800040002000100798000b0037001e00900017
:105a90000000e00003003a004000200010079800da
:105aa000050037001e009000e40f50000200360091
:105ab000100020001007980084c8bf009e009000ce
:105ac000f70007001e0090006c0407001e00900005
:105ad0009e0f10000200320084c8bf0067ff07005d
:105ae00037fe07000080fa00000006000000fa0000
:105af000bcfb070010c0b300fe0007004900070010
:105b000000c0eb007200070021e1a9002021a900dc
:105b100020c1a900011220009140780000c3b30009
:105b200000c0700020e1b7000000eb00c008880052
:105b300070892900e0088800b2c0bf007040b3003f
:105b4000b2e0b7008780a9009780a80021e1a800f3
:105b50000080fa00000006000600fa00004f7800fe
:105b6000110798001e80fb006600b90080007800d5
:105b7000a058280000804000100078000000e000dd
:105b80000b003a001e80fb006600b9008080e80030
:105b9000a058280000804000100078000000e000bd
:105ba00003003a0010002000200798001a00370078
:105bb0001e80fb006600b90080007800a058280015
:105bc00000804000900078001e009000808f500000
:105bd000030036000000eb00200798000e0037009d
:105be0001e80fb006600b9008080e800a0582800f5
:105bf00000804000900078001e009000808f5000d0
:105c0000030031000000eb0020079800020037007d
:105c100010002000200798002e0090000080fa005d
:105c2000000006000200fa000040eb00004f780080
:105c3000060037009e80fb00d08720008080400057
:105c40000040eb00804878001e4fe8001e04e00092
:105c5000f8ff32000040eb000800070010c0b3005e
:105c60000600070020c0b3000400070030c0b300e6
:105c7000020007000080fa00000006000200fa009f
:105c8000004f78001e80fb004300de008081fb0097
:105c90008080fb00d087200000804000104078000a
:105ca000004178001e80fb00e7006000100020002b
:105cb0000100dd000040710080407800d0872000a6
:105cc00000804100014878000080fa0000000600d2
:105cd0000400fa00204798002e409000e14f400059
:105ce0000c003a000040eb00004f7800060037003f
:105cf0009e80fb00c0872000808040000040eb00b9
:105d0000804878001e4fe8001e04e000f8ff3200d3
:105d1000140037002e4090000080fb004300de009e
:105d20008081fb008080fb00c08720000080400055
:105d300010407800004178002e4090000080fb0069
:105d4000e7006000100020000100dd0000c0ea0054
:105d50000040610080407800c08720000080410042
:105d6000014878000080fa00000006000200fa00f6
:105d7000004f78001e80fb004300de008080fb00a7
:105d8000c087200000804000104078008080fb0029
:105d90001e80fb00670060000088de000080fb00c2
:105da000610060000080fa00000006000400fa00b4
:105db000204798000000eb00000f78008e0078006c
:105dc0002e409000030007001e0078000080fa00bb
:105dd000000006000400fa00004f78001107980048
:105de0001e80fb00800040000087200000804000f3
:105df000900078001e009000010878000080fa00f2
:105e0000000006000600fa00004f78001107980015
:105e10009e0090001e4078004fff07000004e00045
:105e20001a0032001e80fb00800040000087200026
:105e3000008040009e009000010878001e80fb005a
:105e40004300de008081fb008080fb00c0872000d3
:105e50000080400010407800004178001e80fb0068
:105e6000e7006000100020000100dd00004071002c
:105e700080407800c0872000008041000148780001
:105e80001000200020079800020037008000eb007f
:105e9000210798002e0090000080fa000000060004
:105ea0000600fa00204798002107980010c0b300b0
:105eb000004f78002e4090000080fb0080004000e2
:105ec0000087200000804000900078002e009000a5
:105ed000808f500004003200ae0090002e409000f1
:105ee000c8ff0700004f78001e80fb000080fa000a
:105ef000000006000600fa004047980060c0b300aa
:105f000020479800150037002e409000ec00070055
:105f1000000f78009e0078002e409000e0ff070000
:105f20000004e0000d003a004e4090000004e00044
:105f30000a0032002e4090000080fb006600b9008d
:105f4000e4004000a058280000804000100f7800b6
:105f50009e0078002e409000d1ff07002e40900058
:105f60000040e900204798002e409000e14f40009b
:105f7000e5ff3a000080fa00000006000200fa0087
:105f800060c0b300004f7800020037001e40780068
:105f9000a10007001e4fe90000c0eb009e4f10005b
:105fa000faff3a000080fa00000006000600fa003e
:105fb000004f78001e80fb0020079800ae00900084
:105fc000e58f5000540032002e009000e50f500085
:105fd00014003c00ae009000e28f50003900320007
:105fe0002e009000e20f500007003c00ae00900031
:105ff0000100e000250032002e009000e10f50006b
:10600000290032006e003700ae009000e38f500090
:10601000330032002e009000e40f500037003200b1
:1060200067003700a00c2000ae009000808f500069
:106030004e003200a00c2000ae009000808f500077
:1060400009003c00800c2000ae009000808f5000c2
:1060500038003200900c2000ae009000808f50007d
:106060003b00320056003700b00c2000ae0090001c
:10607000808f500044003200c00c2000ae00900021
:10608000808f5000470032004d003700d043800021
:1060900080004000c0802000008040001000780098
:1060a0001007980048003700d0438000800040006f
:1060b00060812000008040001000780010079800e8
:1060c00041003700d0438000800040000082200063
:1060d0000080400010007800100798003a00370058
:1060e000d0438000800040004083200000804000ba
:1060f000100078001007980033003700d04380006c
:1061000080004000e0832000008040001000780004
:10611000100798002c003700d0438000800040001a
:10612000a082200000804000100078001007980036
:1061300025003700d04380008000400020802000f0
:106140000080400010007800100798001e00370003
:10615000d043800080004000808420000080400008
:10616000100078001007980017003700d043800017
:106170008000400020852000008040001000780052
:106180001007980010003700d043800080004000c6
:10619000c0852000008040001000780010079800a3
:1061a00009003700d043800080004000c0852000f7
:1061b00000804000100078001007980002003700af
:1061c000c0742800100798001e0090000080fa009c
:1061d000000006000200fa00004f78001e80fb005d
:1061e0004300de008080fb00d0872000008040005c
:1061f00010407800004178001e80fb00e70060003e
:10620000100020000100dd00004061000080fb0064
:106210000080fa00000006000400fa00881f7800e1
:10622000204798002e409000e0fe0700004f7800c5
:106230001e84fb002e4090000080fb000000400008
:1062400098fa0700800f5400060032002e4090009c
:106250000080fb0000004000800078001e80fb00f2
:1062600004fb07002e409000d0fe07004800de002f
:10627000004f78001e84fb002e4090000080fb0041
:10628000000040000000e80086fa0700800f54007c
:10629000070032002e4090000080fb00000040000c
:1062a0000000e800800078001e80fb00f1fa070083
:1062b000000000004f0478000080fa000000060093
:1062c0000400fa00204798002e4090000080fb0058
:1062d0000000400073fa0700000f78002e40900085
:1062e0000080fb00000040000000e8006dfa07009d
:1062f0004800dd001e0f4000000000001e00780076
:106300000080fa00000006003600f800809fbe0002
:10631000829fbe00849fbe00869fbe003400f800ae
:1063200000002000a00188000000fa0001c8bf00a2
:106330000040e90001e8b70001c8bf000004e00028
:1063400003003a0050c0b30001e8b7000bff07009c
:106350008780a9000080fa003400f9004f03be00d6
:106360004f02be004f01be004f00be003600f900d4
:10637000004006000000fa00ca82a8000071220056
:106380000100200037e80700ca82a900007122003e
:106390000100200033e807000080fa00000006003a
:1063a0000400fa00004f7800114798002247980037
:1063b000334798003e4090006140600061416000ba
:1063c000b12c200091407800e0cfb30000c0600005
:1063d00002407000cbe2b7002e40900061406000a8
:1063e0006140600000414000b12c200091407800e5
:1063f000d0cfb30000c0600002407000cbe2b70015
:106400001e40900061406000614060004201dd007c
:10641000b12c200091407800b0cfb30000c06000e4
:1064200002407000cbe2b7009e40780061c060007f
:10643000614060004301dd00b12c200091407800f4
:1064400070cfb30000c0600002407000cbe2b70024
:10645000c8ff07000080fa00000006000000fa00f4
:106460008041eb000041eb0011c0b30010c0b3004d
:10647000cbff07008041eb000041eb008040eb00c8
:106480000040eb00c6ff07000080fa000000060095
:106490000000fa008041eb000041eb008040eb007f
:1064a0000040eb00beff07008041eb0012c0b300cc
:1064b0008040eb000040eb00b9ff07000080fa00cd
:1064c000000006000400fa002047980031479800b9
:1064d0000040eb00004f78000b00370013c0b30002
:1064e0000041eb008040eb000040eb00acff0700f8
:1064f000ae4090008041eb000041eb0010c0b300c3
:10650000a7ff07001e4fe8003e4090009e4f10007e
:10651000f2ff35000080fa00000006000400fa00d7
:1065200020479800314798000040eb00004f78006a
:106530000b00370013c0b3000041eb008040eb00bc
:106540000040eb0096ff0700ae4090008041eb005a
:106550000041eb000040eb0091ff07001e4fe800f8
:106560003e4090009e4f1000f2ff35000080fa0080
:10657000000006000400fa00004f78001e00fb0037
:10658000100798001e009000e20f50001900320022
:106590001e009000e20f500004003c001e0090001e
:1065a000e10f500008003200320037001e0090005a
:1065b000e30f50001a0032001e009000e40f50005c
:1065c000220032002b0037008041eb000041eb003d
:1065d0008040eb0010c0b30071ff07008041eb006a
:1065e0000041eb008040eb000040eb006cff070037
:1065f000200037008041eb000041eb0011c0b300e8
:1066000010c0b30066ff07008041eb000041eb00c3
:106610008040eb000040eb0061ff070015003700f1
:1066200013c0b3000041eb008040eb0010c0b3008a
:106630005bff07008041eb000041eb0011c0b3009d
:106640000040eb0056ff07000a00370013c0b300fc
:106650000041eb0011c0b30010c0b30050ff0700b1
:106660008041eb000041eb0011c0b3000040eb00a3
:106670004bff07000080fa00000006000600fa0049
:1066800040479800ca62a8004e4090008080fb00fe
:1066900000082000008060004780de00304798003e
:1066a0004e4090008080fb000004200000806000cd
:1066b0004680de00204798004e4090008080fb001e
:1066c00000022000008060004580de001047980036
:1066d0004e4090000080fb00700060004480de00af
:1066e000004f78009e4178001e419000ae4090001f
:1066f0003e4090002aff07004e4090000080fb00c3
:10670000680060004380de00304798004e409000f3
:106710000080fb00640060004280de00204798009b
:106720004e4090000080fb00620060000080d100bd
:10673000104798004e409000614f60009e417800e5
:106740001e419000ae4090003e40900014ff0700b4
:10675000ca62a9000080fa00000006000200fa00e8
:10676000000f7800040037001e0078001040780009
:10677000c2ff07001e0fe8001e00780010407800de
:106780000004e000f8ff3a000080fa000000060074
:106790000200fa00000f7800040037001e007800a5
:1067a00010407800b5ff07001e0fe8001e007800bb
:1067b000104078000004e000f8ff3a000080fa0082
:1067c000000006000e00fa0050079800414f9800a4
:1067d000ce4890005e0090008e0178000041eb00f2
:1067e000720007004e4890000000fb008e00400041
:1067f0000040eb00804878000e007800e4ff0700be
:106800000080fa00000006000000fa008041eb0062
:106810000041eb008040eb000040eb00e0fe070091
:1068200013c0b3000041eb008040eb000040eb00e0
:10683000dbfe07000080fa00000006000200fa00fc
:10684000004f7800114798008041eb000041eb00b9
:106850008040eb000040eb00d1fe07001e4090009e
:106860001e4178008041780011c0b30010c0b30011
:10687000cbfe07000080fa00000006000200fa00cc
:10688000004f78001e407800614060006140600069
:106890004501dd00a12c200091407800f0cdb3002f
:1068a00000c0600002407000cae2b7000080fa0039
:1068b000000006000000fa00ca62a900ca82a9000e
:1068c000ca42a90000242400f1002000e5e60700e8
:1068d00013c0b30012c0b3008040eb000040eb00d7
:1068e000affe070000352c0001002000dde60700a8
:1068f00013c0b30012c0b3008040eb000040eb00b7
:10690000a7fe070000352c0001002000d5e6070097
:1069100013c0b30012c0b3008040eb000040eb0096
:106920009ffe070000352c0001002000cde6070087
:106930008041eb0012c0b3008040eb000040eb0050
:1069400097fe07008041eb0012c0b3008040eb00cf
:106950000040eb0092fe07008041eb000041eb009d
:106960008040eb0010c0b3008dfe07008041eb00bb
:106970000041eb008040eb000040eb0088fe070088
:106980008041eb0012c0b30011c0b30010c0b300cf
:1069900083fe07008040eb000040eb00a7ff0700ec
:1069a00099ff07000080fa00000006000800fa00c6
:1069b0001007980041479800524798003307980005
:1069c0000040eb00004f78005e4090000004e000c3
:1069d00002003a0000c0eb00504798001e009000f3
:1069e0000000e00053003a004e4090000040e900f3
:1069f000404798004e4090000080fb0080007800e7
:106a00003e0090008080400000c3b30080487800c2
:106a1000070037004e4090000080fb0080007800a7
:106a20003e0090008080400000c2b30080487800a3
:106a30004e4090000040e900404798004e409000d2
:106a4000e14f4000f3ff3a00400037005e40900005
:106a50000004e00008003a004e4090000080fb0077
:106a6000800078003e00900080804000e0c2b300cb
:106a7000804878002c0037001e0090000000e000e5
:106a8000160032001e009000a20020001100090034
:106a90000280d8008000fd00004f78009e80fb003f
:106aa0001e00900001005000a2002000110009000b
:106ab0000280d800100798004e4090000080fb0034
:106ac000800078003e009000808040001e407800ea
:106ad0000043b0008048780013003700de4090008b
:106ae0004e40900080cf500008003e004e40900085
:106af0000080fb00800078003e0090008080400015
:106b000000c3b30080487800070037004e40900073
:106b10000080fb00800078003e00900080804000f4
:106b200000c2b300804878005e4090000040e90059
:106b3000504798004e4090000040e90040479800c0
:106b40004e409000e14f4000c0ff3a000080fa0044
:106b5000000006000000fa00c16c2000914078009f
:106b600000ceb30000c060002041b300cce6b70007
:106b700005e1a9008460a900510a20009140780035
:106b8000f0c8b30000c0600001c4b3000140700051
:106b9000a5e0b7009460a800411020009140780063
:106ba00000c3b30000c0700004e1b7000421a900d5
:106bb00005e1a8001fe1a9008760a900110b2000d2
:106bc00091407800f0c8b30000c0600001c4b30079
:106bd00001407000b1e0b7009760a800e11120000b
:106be00091407800f0ccb30000c0600001c2b30057
:106bf000014070001ee1b7001e21a9007092200024
:106c0000d008880011e1a9001021a90010c1a90035
:106c10000111200091407800f0ccb30000c060006a
:106c200010e1b7000000eb003008880030062000bb
:106c300060088800710a200091407800f0c8b30015
:106c400000c060000044a000a7e0b70084e0a900f5
:106c500094e0a90011e1a80040c0b30053fc070074
:106c6000060007000080fa00000006000000fa009d
:106c700005e1a9000080fa00000006000600fa0005
:106c8000204798002e4090000080fb0020079800cd
:106c90002e009000e20f5000110032002e009000f4
:106ca000e20f500004003c002e009000e10f500065
:106cb00008003200130037002e009000e30f500050
:106cc0000a0032002e009000e40f50000a0032004b
:106cd0000c003700b0002000000f78000b003700d8
:106ce00000012000000f780008003700600120003c
:106cf000000f780005003700b0012000000f780079
:106d00000200370010032000000f78004118200017
:106d10009140780080cfb30000c0600084e1b700ec
:106d20001e007800100c88001e007800000c8800ff
:106d30008461a9001e007800100c88004118200012
:106d40009140780080cfb30000c060006040b30085
:106d500084e1b7000080fa0000000600809fbe00ba
:106d60003400f80000002000a00188000000fa00b4
:106d7000411820009140780080cfb30000c060002f
:106d800084e1b700cbe2a8000000eb00a008880077
:106d90001fe1a8008460a9000080fa003400f90017
:106da0004f00be0000400600809fbe003400f80087
:106db00000002000a00188000000fa001fe1a900e7
:106dc000cbe2a900411820009140780080cfb300a9
:106dd00000c060006040b30084e1b7008760a90094
:106de0000080fa003400f9004f00be0000400600a9
:106df000809fbe003400f80000002000a001880041
:106e00000000fa00411820009140780080cfb300c4
:106e100000c0600084e1b700cbe2a8000000eb00f6
:106e2000a00888001fe1a8008660a9000080fa0081
:106e30003400f9004f00be00004006000000fa00d8
:106e4000c16920009140780000ceb30000c060000e
:106e5000e040b3009ce6b700d16920009140780083
:106e600000ceb30000c06000d040b3009de6b70084
:106e7000111e20009140780080cfb30000c0600058
:106e8000e1e1b700e1e1a900e1a1a900e0e1a90089
:106e9000e0c1a900e041a800e301a800e2e1a800e8
:106ea000211e20009140780000c7b30000c0700090
:106eb000e2e1b7000000eb00200f8800111e200067
:106ec0009140780080cfb30000c060005040b30014
:106ed000e1e1b7000080eb00300f88008b40a90093
:106ee0009b40a9006980a80069a0a8006ae0a800ea
:106ef00062e0a9009660a9008660a90013e1a900dc
:106f00001221a90012c1a90021112000914078008e
:106f100000c3b30000c0700012e1b7000000eb0036
:106f2000500888000032200070088800a8c0bf0008
:106f30007040b300a8e0b7008500a9009500a80044
:106f400013e1a8000080fa00000006000200fa0029
:106f5000cac2bf0001c8b300014060000004e000e5
:106f600004003a00404480000000e80040448800eb
:106f70000a00370040448000e20f50000500360050
:106f80000000eb004044880010002000000f780053
:106f9000040037000000eb00404488000000eb00d4
:106fa000000f78001e0078000080fa000000060044
:106fb000809fbe003400f80000002000a00188007f
:106fc0000000fa00200f8000f0438800f1438000a9
:106fd000004480000080500010448800104480006d
:106fe000e10f500003003c0010448000e10f40001e
:106ff0000d003d00f14380000044800000805000ff
:10700000c200dd00f043800000804000200f8800b7
:10701000200f8000f0438800f1438000004480008e
:107020000080500010448800f04380000044880035
:107030000000eb00500888008500a9000080fa00dd
:107040003400f9004f00be00004006003400f80094
:10705000881f780008002000a80188004f047800ed
:107060000000fa008020a900ffff37003400f8007c
:10707000881f780008002000a80188004f047800cd
:107080000000fa008060a900ffff37003400f8001c
:10709000881f780008002000a80188004f047800ad
:1070a0000000fa008040a900ffff37003400f8001c
:1070b000881f780008002000a80188004f0478008d
:1070c0000000fa008080a900ffff3700801f7800d1
:1070d0003400f80000002000a00188000000fa0041
:1070e0000000eb00001f880080a0a900ffff370010
:1070f0003400f800881f780008002000a8018800ec
:107100004f0478000000fa008020a900ffff37003c
:107110003400f800881f780008002000a8018800cb
:107120004f0478000000fa008060a900ffff3700dc
:107130003400f800881f780008002000a8018800ab
:107140004f0478000000fa008040a900ffff3700dc
:107150003400f800881f780008002000a80188008b
:107160004f0478000000fa008080a900ffff37007c
:10717000801f78003400f80000002000a001880083
:107180000000fa000000eb00001f880080a0a900aa
:04719000ffff3700c6
:020000040000fa
:100f20007e0800000a0000000000000088080000a1
:100f30000200000002000000000000008a0800001b
:100f40000200000000000000000800007000000027
:100f500002000000ff05ae0085b78500c085c9000e
:100f600085d28500db85e40085e48500db85e4002f
:100f700085ed8500f685ff0085088600ed8511006a
:100f8000861a860023862c00863586003e8647001a
:100f90008650860059866200866b860074867400cf
:100fa000867d860086868f0086988600a186aa00a8
:100fb00086b38600bc86c50086ce8600c586d7006f
:100fc00086e08600e986f20086e98600fb8604005a
:100fd000870d870016871f00872887003187040048
:100fe000873a8700048743008700000070080000ec
:0c0ff0000e0000000000000000000000e7
:020000040000fa
:107194001080ba00000006001000ba0000000600cb
:1071a400801f78000500fc0050052000303b88005b
:1071b400a00a2000303b880061e7a800000000001e
:1071c4000000000061e7af00feff37004f007800c9
:1071d400000006008088bb000000060080c8bb00d9
:1071e400000006008008bb00000006008048bb00c9
:1071f400000006000e01780078015100320078008a
:10720400b2007800f3072000838060002200200091
:10721400020050000001eb008280580000000600cc
:00000001FF
