:020000040000fa
:080000000002040000000000f2
:020000040000fa
:100400000f8b2000007f2200000188000000000008
:100410000c00070020332300010020001f0007000c
:10042000000020000000e000020032000000020096
:1004300000000000d0280200000000000040da00a8
:100440000000fe004440a900e01520000000e0008c
:100450000300320000002000a00188004440a800f2
:1004600000000600f03fb1000180b1000600350039
:10047000ee03090000000000403fb1000180b10020
:10048000fbff3d001000b000203fb000020035002f
:1004900000800900000000000000060091018800b3
:1004a000800078000000eb0015003700e28040007b
:1004b00032a0b4009101ba00e280400032a0b40042
:1004c0009102ba00e280400032a0b4000002eb00ca
:1004d000472bde00f507b200602ce10004003a0073
:1004e0000059eb008301e900fdff3e0004003700e6
:1004f0006128e100010032000082eb0004000700e7
:100500001101ba000200e000e8ff3a000000060016
:100510003159ba008301e9000c0032002159ba00b8
:100520008301e900080032000400e00003003a0003
:10053000e280400032a0b400f5ff370011d9ba00c4
:100540008301e900faff3a008100e800e180400001
:1005500032a0b40000000600889fbe008a9fbe0043
:10056000010578000100e0000400350008003c00af
:100570000000e0002000320005003700600010009d
:10058000e080180002003b0001f02c001a00370048
:100590000004be006011b8006b0920000982cf0082
:1005a000020039000882cf000441b00069425200c5
:1005b0000e00320008003b0082817100610164007e
:1005c0008904d1000884d3008b05e8000442e800c8
:1005d000f9ff3a00050037000804440089844c0004
:1005e0008b05e9000442e900fbff3a00f400070034
:1005f0000af0a70001f0a0004f05be004f04be00a6
:100600000000060003f0a200889fbe008a9fbe0083
:100610008c1f780010010700170133006450e100bf
:100620004f0032006420e1005200320003826c006f
:1006300007003b000905d0000306d000820f5400dc
:100640000c065d00020039000200320089017800ca
:10065000030678008582550004003d000003fd007c
:100660008103fd008502ea008b854200840f720041
:1006700002003b0060001000e08018006011b8002c
:100680000005eb007a28e1000a0039000600780036
:10069000c75ddd00f707b200878075002d003700c9
:1006a000828171000a017800610560008180d100bb
:1006b0000080d3008502e900f9ff3b0006044000fa
:1006c0008784480002003b0060041400e0841c00a2
:1006d0000988a300070032008a81710082817100bd
:1006e000610164008904d1000884d3008b05e8000f
:1006f000170037000978a30013003a000b00e00050
:10070000130034008b05e9000804440089844c0080
:100710000a4474000978a3000d003a000b00e000c1
:10072000070034008b05e9000804440089844c006c
:1007300001003a000b0020000978a300f7ff320007
:100740000001eb0002003700828171000a0178008d
:100750009b0007000cf0a70001f0a000cf003700bd
:100760006420e10002003a00838f6c00cf00330068
:100770000801be000200be00c8003700889fbe000e
:100780008a9fbe008c1f7800b3000700ba003300b8
:1007900003866c006450e100240032006420e10014
:1007a000270032006150e100220032006120e100a8
:1007b000210032008b854200eb07b1000134b80004
:1007c000003ab8000804420089844a00013ab8009f
:1007d0000030b8008880400009014a00040033005e
:1007e0000000400081804800020149008b05e900bb
:1007f000c909dd00830170000100320013002000f0
:10080000c814de004814dd004709de001200b20003
:10081000c808de00088470006900070001f0a1002c
:100820000cf0a70001f0a0009c0037006120e1005f
:100830009e0032000801be000200be00f7ff370034
:100840006150e100fcff3a0098003700889fbe002d
:100850008a9fbe008c1f78007f000700860033004f
:1008600003866c006450e1002e0032006420e10039
:10087000330032006150e1002f0032006120e100be
:100880003100320085855500eb07b00009002000db
:1008900008042000050037000804440089844c0047
:1008a0000a0031000603430087834b000001530018
:1008b00081815b00f8ff33000203be000800a00046
:1008c0000804440089844c00f6ff3900c639dd0075
:1008d0008301730001003200130020008904d1005d
:1008e0000884d3000998a300050032000800a7007f
:1008f0000300a0008904d1000884d3008b05e80020
:100900008904d1000884d3000001eb000281d200e9
:100910002b00070001f0a1000cf0a70001f0a000df
:100920005e0037006420e100600032000801be0074
:100930000200be00f7ff37006120e1005b003200db
:100940006000b800f3ff37000000200001f8270026
:10095000f0ff37000001be00570007000470a70039
:1009600003f0a10003f8a30013003a006509b100e9
:1009700010003200090035006928e100020035004e
:1009800001002800000005000000400081804800b0
:100990008502e900fcff3a0000000600f88f4200e3
:1009a000050035008100d1000080d3008502e800f9
:1009b000fcff3a00000006008000eb00000005008c
:1009c00081002000618055000b003d000b002000dd
:1009d00061fe2f000100e1001d00340082817100e2
:1009e000610164008904d1000884d3000000e8009c
:1009f000faff3a00710020006100640003007000fb
:100a0000020060000900320061044400e0844c00f0
:100a10000988a500050032008b05e8006808e100a0
:100a200002003a008904d1000884d300f20f2000ac
:100a30000258e10005003d00c75ddd00f907b20086
:100a40008980750008007800000006000bf8270078
:100a50008b007800000005000004be0016000700af
:100a60000003be000405be000200be001200070025
:100a7000844f7500000006000200be006450e100d3
:100a8000050036006420e100020036000968a3007a
:100a900001003a000800be000160a0004f06780087
:100aa0004f05be004f04be0000000600f0ff2f00ff
:100ab000f1ff2700f9ff3700c70ade00f107b20097
:100ac000f50fb20008003200e1cf42000200320010
:100ad0000170a00024000500810f700001003200a9
:100ae0000408050044000500810f700002003a0070
:100af000140005008502e9000000400081c04800a4
:0c0b0000fcff3b000170a0002400050079
:020000040000fa
:0200000401f009
:04000c00faff0000f7
:020000040000fa
:0200000401f009
:040010001eff0000cf
:020000040000fa
:10000800ec0700008e3200009e320000ae32000085
:10001800be320000ce320000ec070000ec07000002
:10002800ec070000ec070000ec0700005a32000063
:10003800ec070000ec070000ec070000ec070000ec
:100048009e070000ec070000ec070000ec0700002a
:10005800ec070000ec070000ec070000ec070000cc
:10006800ec070000ec070000ec070000ec070000bc
:10007800ec070000ec070000ec070000ec070000ac
:10008800ec070000ec070000ec07000076320000e7
:10009800ec070000ec070000ec070000ec0700008c
:1000a800ec070000ec070000ec070000ec0700007c
:1000b800ec070000ec070000ec070000ec0700006c
:1000c800ec070000ec070000ec070000ec0700005c
:1000d800ec070000ec070000ec070000ec0700004c
:1000e800ec070000ec070000ec070000ec0700003c
:1000f800ec070000ec070000ec070000ec0700002c
:10010800ec070000ec070000ec070000ec0700001b
:10011800ec070000ec070000ec070000ec0700000b
:10012800ec070000ec070000ec070000ec070000fb
:10013800ec070000ec070000ec070000ec070000eb
:10014800ec070000ec070000ec070000ec070000db
:10015800ec070000ec070000ec070000ec070000cb
:10016800ec070000ec070000ec070000ec070000bb
:10017800ec070000ec070000ec070000ec070000ab
:10018800ec070000ec070000ec070000ec0700009b
:10019800ec070000ec070000ec070000ec0700008b
:1001a800ec070000ec070000ec070000ec0700007b
:1001b800ec070000ec070000ec070000ec0700006b
:1001c800ec070000ec070000ec070000ec0700005b
:1001d800ec070000ec070000ec070000ec0700004b
:1001e800ec070000ec070000ec070000ec0700003b
:0801f800ec070000ec07000019
:020000040000fa
:10020800ec070000e0320000f0320000003300008c
:100218001033000020330000ec070000ec0700005a
:10022800ec070000ec070000ec0700005a32000061
:10023800ec070000ec070000ec070000ec070000ea
:100248009e070000ec070000ec070000ec07000028
:10025800ec070000ec070000ec070000ec070000ca
:10026800ec070000ec070000ec070000ec070000ba
:10027800ec070000ec070000ec070000ec070000aa
:10028800ec070000ec070000ec07000076320000e5
:10029800ec070000ec070000ec070000ec0700008a
:1002a800ec070000ec070000ec070000ec0700007a
:1002b800ec070000ec070000ec070000ec0700006a
:1002c800ec070000ec070000ec070000ec0700005a
:1002d800ec070000ec070000ec070000ec0700004a
:1002e800ec070000ec070000ec070000ec0700003a
:1002f800ec070000ec070000ec070000ec0700002a
:10030800ec070000ec070000ec070000ec07000019
:10031800ec070000ec070000ec070000ec07000009
:10032800ec070000ec070000ec070000ec070000f9
:10033800ec070000ec070000ec070000ec070000e9
:10034800ec070000ec070000ec070000ec070000d9
:10035800ec070000ec070000ec070000ec070000c9
:10036800ec070000ec070000ec070000ec070000b9
:10037800ec070000ec070000ec070000ec070000a9
:10038800ec070000ec070000ec070000ec07000099
:10039800ec070000ec070000ec070000ec07000089
:1003a800ec070000ec070000ec070000ec07000079
:1003b800ec070000ec070000ec070000ec07000069
:1003c800ec070000ec070000ec070000ec07000059
:1003d800ec070000ec070000ec070000ec07000049
:1003e800ec070000ec070000ec070000ec07000039
:0803f800ec070000ec07000017
:020000040000fa
:100b0c000100000049740000616c00006961000084
:100b1c006e6f0000004900006e6700006c650000fd
:100b2c00736500002000000046720000616e00003a
:100b3c0063650000736500000054000065640000ec
:100b4c0065730000636f000020000000537000000c
:100b5c00616700006e6f00006c6f000000460000c3
:100b6c007265000071750000656e00007a0000006f
:100b7c00454e00002d4600007265000071200000fb
:100b8c0000460000522d0000467200006571000006
:100b9c0020000000444500002d4600007265000056
:100bac007120000000450000532d0000467200002b
:100bbc006571000020000000436900006c690000b2
:100bcc006e640000726f0000004500004e2d0000a6
:100bdc00437900006c6900006e0000004652000072
:100bec002d430000796c0000696e00000044000089
:100bfc00452d0000437900006c6900006e00000078
:100c0c00455300002d430000796c0000696e000014
:100c1c0000560000656c00006f63000069740000f2
:100c2c0061000000454e00002d560000656c000070
:100c3c006f20000000460000522d00005665000099
:100c4c006c6f000020000000444500002d56000091
:100c5c00656c00006f20000000450000532d000063
:100c6c00566500006c6f0000200000004c6900000d
:100c7c006e670000756100003a200000004500001e
:100c8c004e2d00004c6900006e67000075000000de
:100c9c00465200002d4c0000696e00006775000084
:100cac0000440000452d00004c6900006e670000f8
:100cbc0075000000455300002d4c0000696e0000cb
:100ccc0067750000004e0000756d00002e46000098
:100cdc006f7200006d000000454e00002d460000b4
:100cec006f7200006d20000000460000522d0000c5
:100cfc00466f0000726d00002000000044450000ab
:100d0c002d4600006f7200006d20000000450000b1
:100d1c00532d0000466f0000726d00002000000093
:100d2c004c7500006d6900006e6f00007369000067
:100d3c00004500004e2d00004c6900006768000063
:100d4c0074000000465200002d4c00006967000042
:100d5c006874000000440000452d00004c69000040
:100d6c006768000074000000455300002d4c000023
:100d7c006967000068740000006d0000487a00008c
:100d8c00006d0000742f00006d000000206d00004d
:100d9c006d200000007800000020000020200000e2
:100dac002020000000250000202000000000000092
:0c0dbc0001000000010000000100000028
:020000040000fa
:104000000600fa0042c0bf000080fb004500de0051
:104010000080fb00200798009002800010079800a5
:10402000ff3ffc00210420009140780000ceb30047
:1040300000c0700042e0b7001e00900090028800af
:10404000b209070090028000000f7800ff3ffc00db
:104050002e00900067406000c500dd0042c0bf0038
:104060007f4060000140700042e0b7001e00780011
:10407000900288000080fa00000006000c00fa00a0
:104080006047980071479800024f980032c0bf0007
:104090000080fb00000f7800028020000300200059
:1040a0006e4090008080fb0000c020000088b900b6
:1040b0000100200002014000838148007e40900002
:1040c0000080fb004a00dd000100200002004000eb
:1040d000838048004008de000100200032e0b70085
:1040e0000080200001002000000178006e40900058
:1040f0000080fb006300b900800078007e409000e3
:104100000080fb00008040004a00dd00000041000c
:10411000200798002e009000780907008040780062
:1041200000c0eb0000c06000304798000e489000cf
:104130000080fb00500798005e009000f30f5000d5
:104140000d0032005e009000f40f500010003200ad
:104150005e009000f20f50000100320012003700a4
:104160003e4090000080fb00640060004280de0062
:10417000204798000e0037003e4090000080fb0072
:10418000680060004380de00204798000800370088
:104190003e4090000080fb00700060004480de0024
:1041a00020479800020037000040eb0020479800ad
:1041b0001e00780032e0b7002e4090000080fb0027
:1041c0000080fa00000006000600fa004047980050
:1041d0005147980032c0bf000080fb00000f7800fc
:1041e00002802000030020004e4090008080fb00f1
:1041f00000c020000088b90001002000020140003a
:10420000838148005e4090000080fb004a00dd0092
:104210000100200002004000838048004008de00ca
:104220000100200032e0b70020042400003b880099
:104230000080200001002000000178004e40900026
:104240000080fb006300b900800078005e409000b1
:104250000080fb00008040004a00dd0000004100bb
:10426000100798009e0090001e009000380907007b
:1042700063ff07001e00780032e0b7000080fa00fc
:10428000000006000c00fa00204f98000000eb0030
:104290004007980032c0bf000080fb00000f78008c
:1042a0000000eb0030079800030037003e0090004c
:1042b0000000e800300798003e009000e20f500038
:1042c00007003c003e0090008040780032c1b300ff
:1042d0002e48900069ff0700e10f5000f3ff320005
:1042e00002802000030020002e4890008080fb0008
:1042f00000c020000088b900010020000201400039
:10430000838148003e0090004a00dd00010020004b
:1043100002004000838048004008de0001002000c9
:1043200032e0b7000080200001002000000178008a
:104330002e4890000080fb006300b90080007800e8
:104340003e009000008040004a00dd000000410077
:10435000100798004e0090000080e8004007980089
:104360001e0090000080e800100798001e009000da
:10437000e20807008040780000c0eb0000c0600049
:1043800040479800ce009000f03f2000808f500002
:1043900003003c004e409000e14f4000edff3a002a
:1043a000ce00900000402000808f500002003a00b4
:1043b0000000eb00400798001e00780032e0b700d4
:1043c0004e0090000080fa00000006001600fa007f
:1043d000881f78002057980032c0bf000080fb0083
:1043e000600798000000eb00000f98000300370002
:1043f0000e0890000000e800000f98000e089000e2
:10440000e20f500007003c000e089000804078004a
:1044100032c1b3002e50900018ff0700e10f50008a
:10442000f3ff32000e089000e30f500006003a0040
:104430006e00900032e0b700ae68a80030002000a7
:10444000200f9800630137000e0890000000e8007c
:10445000700798007e009000e30f500015003a00ae
:104460000000eb0070079800120037007e009000fb
:104470000000e800700798007e009000e30f5000f5
:1044800002003a000000eb0070079800fe00900068
:104490000e089000808f500006003a006e009000d9
:1044a00032e0b700ae28a80010002000200f9800ce
:1044b000480137007e0090008040780042c1b30080
:1044c0002e509000edfe07000000e000e7ff3200f4
:1044d00002802000030020002e5090008080fb000e
:1044e00000c020000088b900010020000201400047
:1044f000838148007e0090004a00dd00010020001a
:1045000002004000838048004008de0001002000d7
:1045100032e0b70000802000010020000001780098
:104520002e5090000080fb006300b90080007800ee
:104530007e009000008040004a00dd000000410045
:10454000400798002e5090004eff07000000e0004a
:1045500001003200ae48a800aec8bf00004f78008e
:10456000ae08a9000000eb003007980010002400fe
:10457000003b8800ce0090000080eb00740807002c
:10458000ce009000f00f20006d0807004e00900054
:104590000080e800400798000040eb00404798008a
:1045a0003e0090000000e80030079800340037001b
:1045b0002e5090008080fb00f00f20000088b90092
:1045c000800078004e4090000080fb00008040009a
:1045d000b40107001007980070458000610060007a
:1045e0000000e00002003200ae08a9000d00370014
:1045f0001e009000ce009000550807004e4090002d
:104600000080fb00ce0090004d0807004e00900097
:104610000080e800400798003e0090000000e8009d
:10462000300798004e4090000040e8004047980056
:104630000c003700ce0090000080eb00440807001b
:10464000ce009000f00f20003d0807004e009000c3
:104650000080e800400798003e0090000000e8005d
:10466000300798004e409000e14f400004003a00af
:10467000be009000f0032000808f5000edff34005a
:104680004e409000e14f400004003200be00900018
:10469000f0032000808f5000c5ff340058fe070053
:1046a0000000eb00300798004e409000e14f4000c2
:1046b000f3ff3a001e407800aee8b7000280200009
:1046c000030020002e5090008080fb0000c02000de
:1046d0000088b900010020000201400083814800e9
:1046e0007e0090004a00dd00010020000200400032
:1046f000838048004008de000100200032e0b7005f
:104700000080200001002000000178002e50900061
:104710000080fb006300b900800078007e009000fc
:10472000008040004a00dd00000041000080e800f9
:1047300040079800ce0090004e0090000000e80076
:104740004007980001007800ec07070040479800f8
:10475000ce0090004e0090000000e8004007980056
:1047600001007800e70707001007980021003700d4
:104770002e5090008080fb00f00f20000088b900d0
:10478000800078004e4090000080fb0000804000d8
:1047900044010700800078001e009000808f5000c8
:1047a000060032006e00900032e0b700aee8a800cc
:1047b00070002000200f980086003700ce00900087
:1047c0004e0090000000e8004007980001007800cb
:1047d000ca07070040479800ce0090004e009000a6
:1047e0000000e8004007980001007800c5070700b6
:1047f000100798004e409000e14f4000dcff3a0067
:104800000080200001002000000178002e50900060
:104810000080fb006300b900800078000e08900063
:10482000008040004a00dd00000041005007980071
:104830000080200001002000000178002e50900030
:104840000080fb006300b900800078007e009000cb
:10485000008040004a00dd00000041004007980051
:1048600002802000030020002e5090008080fb007a
:1048700000c020000088b9000100200002014000b3
:10488000838148000e0890004a00dd0001002000ee
:1048900002004000838048004008de000100200044
:1048a00032e0b7005e0090009607070010079800fe
:1048b0005e00900091070700404798007e0090003e
:1048c0000000e00003003a001e0090000000e80035
:1048d000100798001e009000e30f500005003600fe
:1048e000ae28a800f0ceb300ce40900000c060001b
:1048f0004047980002802000030020002e509000c6
:104900008080fb0000c020000088b900010020006a
:1049100002014000838148007e0090004a00dd00d3
:104920000100200002004000838048004008de00b3
:104930000100200032e0b7004e4090000080fb00f4
:10494000ce0090007e0707001e009000ce00900071
:104950007f07070030002400003b8800a8fd070007
:104960004e4090000084fb004e009000630707005b
:10497000800f540006003a004e00900061070700c7
:10498000800078001e009000808f500006003200ea
:104990006e00900032e0b700aee8a8007000200082
:1049a000200f98000b0037000e0890008040780020
:1049b0002e50900004fe07006e00900032e0b70019
:1049c000704580000000d100614060000080fb0065
:1049d000200f98002e0890004f0478000080fa0005
:1049e000000006000e00fa0032c0bf000080fb008d
:1049f0004007980000802000010020004008de00f1
:104a00000100200032e0b7000040eb00004f7800ca
:104a10009c0037000040eb00304f98000040eb0056
:104a2000204f98000000eb00100798000000eb00fa
:104a300030079800030037003e0090000000e800b7
:104a4000300798003e009000e20f500007003e0043
:104a50003e0090008040780042c1b3001e407800c4
:104a600086fd07000000e000f3ff32003e009000ea
:104a7000e30f500006003a004e00900032e0b7000d
:104a8000ae28a800100020006007980082003700c0
:104a90000000eb00300798000d0037003e0090004a
:104aa0008040780032c1b3001e40780073fd0700db
:104ab0000000e00003003a003e4890000040e8009b
:104ac000304f98003e0090000000e800300798004a
:104ad0003e009000e20f5000f0ff36003e4890008c
:104ae0000004e00022003a008040eb001e40780005
:104af000b5fd070002802000030020009e80fb001f
:104b000000c020000088b900010020000200400021
:104b1000838048004008de000100200032e0b7003a
:104b20000080200001002000000178009e80fb0032
:104b300000c020000088b900000041002007980054
:104b400030002400003b8800ae0090000000eb0025
:104b5000ff060700ae009000300f2000f8060700a7
:104b600027fd07004e00900032e0b70044003700f8
:104b70003e489000e14f500003003a004e00900084
:104b800032e0b7003e0037003e489000e24f500050
:104b900035003a0032c1b30021c0b3001e40780096
:104ba00036fd07000000e0000b003a0032c1b30000
:104bb0008040eb001e40780030fd07000000e00060
:104bc00005003a0020002000300798000040eb006c
:104bd000204f9800180037000000eb0030079800c5
:104be000030037003e0090000000e8003007980006
:104bf0003e0090008040780032c1b3001e40780033
:104c00001efd0700e10f500003003a003e00900037
:104c1000e20f5000f3ff36003e0090000040e80035
:104c2000204f98002e489000e34f500002003a00b9
:104c30000040eb00204f9800ae4890001e407800e6
:104c400061fd07001e4078008efd07000000e000b7
:104c500002003a001e407800dcfd07004e00900084
:104c600032e0b700060037004e00900032e0b70097
:104c7000aec8a8006000200060079800060037005a
:104c80001e4fe80010c0b3009e4f100061ff3600b9
:104c90000000eb00600798006e0090000080fa00b2
:104ca000000006001000fa0060079800ee00900077
:104cb000d01f2000808f500004003600aea8a8004e
:104cc0000080eb0070079800670037006e009000ce
:104cd000f20f2000110009000280d800004f780078
:104ce00032c0bf000080fb00500798000000eb00be
:104cf00040079800030037004e0090000000e800d5
:104d0000400798004e009000e20f500007003e0060
:104d10004e0090008040780032c1b3001e40780001
:104d2000d6fc0700e10f5000f3ff32004e00900068
:104d3000e30f500006003a005e00900032e0b7003a
:104d4000aec8a8000080eb0070079800460037004e
:104d500002802000030020009e80fb0000c0200095
:104d60000088b90001002000020140008381480052
:104d70004e0090004a00dd000100200002004000cb
:104d8000838048004008de000100200032e0b700c8
:104d90000080200001002000000178009e80fb00c0
:104da00000c020000088b900800041004e00900043
:104db0004a00dd0000804000e03fb000300798006e
:104dc00000202000100798003e0090004b060700ce
:104dd000200798003e0090000080e900300798000e
:104de0001e0090000000e900100798001e009000cf
:104df0000000e000090032006e009000f20f200079
:104e0000110009000280d8008000fd0080007800b9
:104e10002e009000808f5000ebff3a001e009000a3
:104e20000000e00006003a00ae08a8005e00900016
:104e300032e0b7000080eb00700798000a003700ee
:104e40003e0090000080e800300798003e0090008f
:104e50002c060700200798005e00900032e0b700a3
:104e60002e009000700798007e0090000080fa00ed
:104e7000000006001400fa0070079800010f980067
:104e80008e089000d01f2000808f50000400360054
:104e9000aea8a80050002000100f9800bd003700f9
:104ea0000e089000f20f2000110009000280d800c7
:104eb000000f780032c0bf000080fb005007980050
:104ec00030002400003b88000000eb004007980001
:104ed000030037004e0090000000e80040079800f3
:104ee0004e009000e20f500007003c004e00900082
:104ef000804078001e00780032c1b3005ffc0700dc
:104f0000e10f5000f3ff32004e009000e30f50001d
:104f100006003a005e00900032e0b700aec8a8007c
:104f200060002000100f98009a00370002802000d7
:104f3000030020009e00780000c020000088b90017
:104f40000100200002014000838148004e009000d3
:104f50004a00dd000100200002004000838048007c
:104f60004008de000100200032e0b7000080200091
:104f700001002000000178001e0078006300b900e5
:104f8000800078004e009000008040004a00dd0064
:104f90000000410030079800aec8bf0020479800cd
:104fa0000e0890003fff0700800078007e00900010
:104fb000808f50000b003a00704580006100600057
:104fc0000000e00007003a005e00900032e0b70009
:104fd0002e409000aee8b7000000eb00100f9800e4
:104fe0006c0037002e409000aee8b7001e0078003d
:104ff000a4fc0700200798002e0090000000e000ad
:1050000006003a005e00900032e0b700ae88a800cb
:1050100040002000100f98005e003700be00900096
:105020002e00900000804000300798007e00900025
:10503000be009000c60507000e089000f20f200089
:10504000110009000280d8008000fd00be00900021
:10505000bb050700eafb070000000000000000009d
:105060003e009000a70507008040780000c0eb00dc
:1050700000c06000404f98004e4890000081fb0047
:10508000fe009000f00f200000806000800f5100b3
:10509000060032005e00900032e0b700aee8a800e3
:1050a00070002000100f98003a0037003e0090007a
:1050b000920507008040780000c0eb0000c060004f
:1050c000404f98004e4890008080fb000e089000f2
:1050d000f20f2000811f7800110009000280d80023
:1050e0000001780001007800cf007800808f500028
:1050f000060032005e00900032e0b700aee8a80083
:1051000070002000100f9800220037003e00900031
:105110000000e800300798003e0090007905070085
:105120004880de008040780000c0eb0000c06000d6
:10513000404f98004e4890000081fb007e00900098
:10514000c800de00f00f200000806000800f5100da
:10515000060032005e00900032e0b700aee8a80022
:1051600070002000100f98000a003700ae00900079
:10517000e03f2000808f500002003a001e007800bf
:1051800092fc07005e00900032e0b7000000eb00e8
:10519000100f98001e0890000080fa000000060022
:1051a0000200fa001300070000003700b04480003e
:1051b0009401070048ef07000004e000fbff320005
:1051c0009cc8bf00e54f5000040032009cc8bf00df
:1051d0000040e800004f7800020037000040eb007c
:1051e000004f78001e4078006e0107003b0007006a
:1051f000eeff37000000fa000080eb006019880025
:105200000000eb00201688000000eb00001688006c
:105210000000eb0060168800000c26004016880095
:10522000400120000100200073030700470307002e
:10523000ecfd0700e4ee0700170407000500070077
:105240000040eb0057010700240007000080fa002f
:10525000000006000000fa00881f780041002000ce
:10526000a001200003ff070051002000b001200032
:1052700000ff0700400020008afe0700f04488007d
:10528000f04480004800dd00f0448800f8448000cd
:105290005000200083fe070000004400f044880016
:1052a000001e200000458800800420001045880072
:1052b0001000200020458800200320003045880091
:1052c0000000eb00404588000040eb00780007003c
:1052d0004f0478000080fa00000006000400fa0085
:1052e00040458000004f78009cc8bf000080fb0054
:1052f000100798001e009000e20f500022003200bc
:105300001e009000e20f500007003c001e009000bd
:105310000000e0000e0032001e009000e10f50007f
:1053200027003200600037001e009000e40f50009c
:10533000500032001e009000e40f50002e00350097
:105340001e009000e50f50003b0032005600370071
:10535000200207001e80fb0080004000a085200086
:105360000080400010007800cd0207000c0207000a
:10537000f044800051c0b300e3020700306c280005
:10538000c702070048003700120207001e80fb001a
:1053900080004000e086200000804000100078007f
:1053a000bf020700fe0107001045800041c0b300a6
:1053b000d5020700706c2800b90207003a003700d8
:1053c000040207001e80fb00800040004086200091
:1053d0000080400010007800b1020700f0010700d3
:1053e0000045800041c0b300c7020700c06c280020
:1053f000ab0207002c003700f60107001e80fb00ff
:1054000080004000208820000080400010007800cc
:10541000a3020700e2010700106d2800a0020700a8
:105420002045800021c0b300b7020700306d28007e
:105430009b0207001c003700e60107001e80fb00ee
:10544000800040008087200000804000100078002d
:1054500093020700d2010700404580008000400011
:105460000085200000804000100078008c020700ba
:105470000d003700d70107001e80fb0080004000b0
:10548000c0882000008040001000780084020700df
:10549000c30107003045800051c0b3009a020700e5
:1054a000906d28007e0207000080fa0000000600d0
:1054b0002a00fa00889fbe00604f9800f0448000e8
:1054c00001002000500798006107980010458000f7
:1054d0000100200030079800410798000045800037
:1054e0000100200010079800210798002045800047
:1054f000004f78006e4890000080fb004017980035
:105500004e1090000000e00004003200ce10900029
:10551000e28f500047003200840037003e009000c8
:10552000ce009000e00f5000e08f580006003500dc
:105530003e009000ce00900007ec07002017980076
:1055400031179800170037003e009000ce00900001
:10555000610160006000b8000300200002007000dc
:10556000838070003e019000ce0190008301d10045
:105570000281d3000200700083807000f6eb070008
:1055800020179800311798002e119000be1190003e
:105590002e109000be1090001bec07002017980002
:1055a0003117980052552300236824002e109000d4
:1055b000be10900071ec07000004be001e80fb00ce
:1055c000cf80de00e4eb07000001be000800be0053
:1055d0006aec070000179800111798000845800032
:1055e0006140b900dceb0700600f9800710f980074
:1055f0000800e00007003d000200200003782400be
:105600006e089000fe089000ffeb0700600f980006
:10561000710f98006e099000fe0990000e10900026
:105620009e10900089ec0700caec0700f044880047
:105630003e0037009e0090005e0090000009b80018
:10564000420f9800530f98009e0090006e0090004b
:105650000088b9005e09900000014100de00900062
:105660002e0090000088b90000014100520f980000
:105670004e0a9000de0a9000e00f5200e08f5a00c0
:10568000060035004e089000de089000b2eb0700df
:10569000200f9800310f9800160037004e08900038
:1056a000610160006000b80003002000020070008b
:1056b000838070004e0a9000de0a90008501d100c0
:1056c0000481d3000200700083807000a2eb070009
:1056d000200f9800310f98002e099000be0990000d
:1056e0002e089000be089000c7eb0700200f98001e
:1056f000310f980022882a00b38723002e089000db
:10570000be0890001dec07000004be001e80fb00d8
:10571000cf80de0090eb07000001be000800be0055
:105720004aec07008bec070010458800f844800025
:105730006140b90088eb0700000f9800110f980036
:105740000800e00007003d0002002000037824006c
:105750000e0890009e089000abeb0700000f980029
:10576000110f98000e0990009e099000902f2000c4
:1057700051c1240035ec070076ec070010088800c2
:105780000108800010088000808f5000020039005e
:105790000000eb00000888004f04be000080fa0003
:1057a000000006000200fa00004f78001e4078005a
:1057b0009ce8b7001e80fb0080004000e0892000cc
:1057c0000080400010007800504588001e80fb00db
:1057d00080004000e0892000008040001000780038
:1057e000c04488001e80fb0080004000e08920004b
:1057f0000080400010007800200f88000080fa0030
:10580000000006000600fa001007980051458000cd
:105810001e009000808f5000a50032001e009000f6
:10582000000f78009cc8bf000080fb002007980094
:10583000ae009000e28f5000240032002e00900055
:10584000e20f500007003c00ae0090000100e000b5
:105850000e0032002e009000e10f50002b003200ad
:105860008d003700ae009000e48f500061003200e0
:105870002e009000e40f500034003500ae00900080
:10588000e58f500047003200830037009e009000f3
:1058900000a62e00808f5000020036000000eb00b2
:1058a000100798009cc8bf000080fb0080004000eb
:1058b000e0892000008040009e00900001087800f0
:1058c00020c0b300fafe0700730037009e0090006e
:1058d00000a62e00808f5000020036000000eb0072
:1058e000100798009cc8bf000080fb0080004000ab
:1058f000e0892000008040009e00900001087800b0
:105900000040eb00eafe0700630037009e009000b5
:1059100000a62e00808f5000020036000000eb0031
:10592000100798009cc8bf000080fb00800040006a
:10593000e0892000008040009e009000010878006f
:105940000040eb00dafe0700530037009e00900095
:1059500000a62e00808f500003003600c0002000fb
:1059600010079800050037001e009000ec0f500053
:105970000200360010002000100798009cc8bf00ed
:105980000080fb0080004000e08920000080400093
:105990009e009000010878000040eb00c4fe070064
:1059a0003d0037009e00900000a62e00808f500022
:1059b0000300360040002000100798000500370063
:1059c0001e009000e40f5000020036000000eb00c3
:1059d000100798009cc8bf000080fb0080004000ba
:1059e000e0892000008040009e00900001087800bf
:1059f000290037009e00900040062000808f500054
:105a0000030036000000eb00100798001900370073
:105a10009e009000b0042000808f500003003600ec
:105a20004006200010079800120037009e009000ea
:105a300020032000808f500003003600b0042000b7
:105a4000100798000b0037001e009000f90f50005f
:105a500003003600200320001007980005003700df
:105a60001e0090000000e0000200320090012000c3
:105a7000100798009cc8bf000080fb008000400019
:105a8000e0892000008040009e009000010878001e
:105a90001e009000450207001e0090009e0f10009f
:105aa000020032009cc8bf003eff07000bfe07004b
:105ab0000080fa00000006000000fa00ca82a80078
:105ac000007122000100200066ea0700ca82a900d6
:105ad000007122000100200062ea07000080fa0045
:105ae000000006000400fa00004f780011479800fb
:105af00022479800334798003e4090006140600084
:105b000061416000b12c200091407800e0cfb300eb
:105b100000c0600002407000cbe2b7002e40900051
:105b2000614060006140600000414000b12c2000f5
:105b300091407800d0cfb30000c0600002407000f8
:105b4000cbe2b7001e409000614060006140600001
:105b50004201dd00b12c200091407800b0cfb300ad
:105b600000c0600002407000cbe2b7009e407800a9
:105b700061c06000614060004301dd00b12c200085
:105b80009140780070cfb30000c060000240700008
:105b9000cbe2b700c8ff07000080fa000000060053
:105ba0000000fa008041eb000041eb0011c0b3009f
:105bb00010c0b300cbff07008041eb000041eb00b9
:105bc0008040eb000040eb00c6ff07000080fa00b9
:105bd000000006000000fa008041eb000041eb00ed
:105be0008040eb000040eb00beff07008041eb006f
:105bf00012c0b3008040eb000040eb00b9ff07008b
:105c00000080fa00000006000400fa002047980017
:105c1000314798000040eb00004f78000b00370040
:105c200013c0b3000041eb008040eb000040eb00ec
:105c3000acff0700ae4090008041eb000041eb005c
:105c400010c0b300a7ff07001e4fe8003e409000c1
:105c50009e4f1000f2ff35000080fa0000000600a1
:105c60000400fa0020479800314798000040eb00fc
:105c7000004f78000b00370013c0b3000041eb0069
:105c80008040eb000040eb0096ff0700ae40900024
:105c90008041eb000041eb000040eb0091ff07006a
:105ca0001e4fe8003e4090009e4f1000f2ff35006e
:105cb0000080fa00000006000400fa00004f78009f
:105cc0001e00fb00100798001e009000e20f50001d
:105cd000190032001e009000e20f500004003c004a
:105ce0001e009000e10f5000080032003200370023
:105cf0001e009000e30f50001a0032001e009000ba
:105d0000e40f5000220032002b0037008041eb00ee
:105d10000041eb008040eb0010c0b30071ff0700b2
:105d20008041eb000041eb008040eb000040eb00c5
:105d30006cff0700200037008041eb000041eb00c2
:105d400011c0b30010c0b30066ff07008041eb0034
:105d50000041eb008040eb000040eb0061ff0700da
:105d60001500370013c0b3000041eb008040eb008a
:105d700010c0b3005bff07008041eb000041eb0067
:105d800011c0b3000040eb0056ff07000a003700c7
:105d900013c0b3000041eb0011c0b30010c0b3004a
:105da00050ff07008041eb000041eb0011c0b30041
:105db0000040eb004bff07000080fa0000000600e7
:105dc0000600fa0040479800ca62a8004e409000c2
:105dd0008080fb0000082000008060004780de001b
:105de000304798004e4090008080fb000004200067
:105df000008060004680de00204798004e40900002
:105e00008080fb0000022000008060004580de00f2
:105e1000104798004e4090000080fb00700060002a
:105e20004480de00004f78009e4178001e419000c3
:105e3000ae4090003e4090002aff07004e40900088
:105e40000080fb00680060004380de00304798005f
:105e50004e4090000080fb00640060004280de0045
:105e6000204798004e4090000080fb0062006000d8
:105e70000080d100104798004e409000614f6000b4
:105e80009e4178001e419000ae4090003e40900040
:105e900014ff0700ca62a9000080fa000000060093
:105ea0000200fa00000f7800040037001e0078009e
:105eb00010407800c2ff07001e0fe8001e007800a7
:105ec000104078000004e000f8ff3a000080fa007b
:105ed000000006000200fa00000f780004003700fe
:105ee0001e00780010407800b5ff07001e0fe80084
:105ef0001e007800104078000004e000f8ff3a002f
:105f00000080fa00000006000e00fa00500798001a
:105f1000414f9800ce4890005e0090008e017800be
:105f20000041eb00720007004e4890000000fb00ab
:105f30008e0040000040eb00804878000e007800a2
:105f4000e4ff07000080fa00000006000000fa00ed
:105f50008041eb000041eb008040eb000040eb0093
:105f6000e0fe070013c0b3000041eb008040eb00ef
:105f70000040eb00dbfe07000080fa000000060096
:105f80000200fa00004f7800114798008041eb00b2
:105f90000041eb008040eb000040eb00d1fe070029
:105fa0001e4090001e4178008041780011c0b3006f
:105fb00010c0b300cbfe07000080fa00000006000e
:105fc0000200fa00004f78001e4078006140600037
:105fd000614060004501dd00a12c20009140780067
:105fe000f0cdb30000c0600002407000cae2b7000c
:105ff0000080fa00000006000000fa00ca62a90052
:10600000ca82a900ca42a90000242400f10020008d
:1060100014e9070013c0b30012c0b3008040eb00c6
:106020000040eb00affe070000352c00010020000f
:106030000ce9070013c0b30012c0b3008040eb00ae
:106040000040eb00a7fe070000352c0001002000f7
:1060500004e9070013c0b30012c0b3008040eb0096
:106060000040eb009ffe070000352c0001002000df
:10607000fce807008041eb0012c0b3008040eb0059
:106080000040eb0097fe07008041eb0012c0b30018
:106090008040eb000040eb0092fe07008041eb00e7
:1060a0000041eb008040eb0010c0b3008dfe070004
:1060b0008041eb000041eb008040eb000040eb0032
:1060c00088fe07008041eb0012c0b30011c0b3008e
:1060d00010c0b30083fe07008040eb000040eb00df
:1060e000a7ff070099ff07000080fa0000000600e4
:1060f0000800fa001007980041479800524798009e
:10610000330798000040eb00004f78005e4090009d
:106110000004e00002003a0000c0eb005047980085
:106120001e0090000000e00053003a004e40900036
:106130000040e900404798004e4090000080fb007e
:10614000800078003e0090008080400000c3b300d3
:1061500080487800070037004e4090000080fb0028
:10616000800078003e0090008080400000c2b300b4
:10617000804878004e4090000040e9004047980079
:106180004e409000e14f4000f3ff3a0040003700de
:106190005e4090000004e00008003a004e4090008d
:1061a0000080fb00800078003e009000808040006e
:1061b000e0c2b300804878002c0037001e00900039
:1061c0000000e000160032001e009000a200200037
:1061d000110009000280d8008000fd00004f780007
:1061e0009e80fb001e00900001005000a2002000d5
:1061f000110009000280d800100798004e4090005e
:106200000080fb00800078003e009000808040000d
:106210001e4078000043b00080487800130037002b
:10622000de4090004e40900080cf500008003e00bd
:106230004e4090000080fb00800078003e009000ff
:106240008080400000c3b30080487800070037001a
:106250004e4090000080fb00800078003e009000df
:106260008080400000c2b300804878005e4090000b
:106270000040e900504798004e4090000040e9007f
:10628000404798004e409000e14f4000c0ff3a0068
:106290000080fa00000006000000fa00c16c200037
:1062a0009140780000ceb30000c060002041b300f0
:1062b000cce6b70005e1a9008460a900510a2000de
:1062c00091407800f0c8b30000c0600001c4b30082
:1062d00001407000a5e0b7009460a80041102000c4
:1062e0009140780000c3b30000c0700004e1b70023
:1062f0000421a90005e1a8001fe1a9008760a90009
:10630000110b200091407800f0c8b30000c060007d
:1063100001c4b30001407000b1e0b7009760a8006d
:10632000e111200091407800f0ccb30000c0600083
:1063300001c2b300014070001ee1b7001e21a90098
:1063400070922000d008880011e1a9001021a90056
:1063500010c1a9000111200091407800f0ccb300d9
:1063600000c0600010e1b7000000eb0030088800ba
:106370001003200060088800710a20009140780016
:10638000f0c8b30000c060000044a000a7e0b70060
:1063900084e0a90094e0a90011e1a80020c3b300a3
:1063a000020007000080fa00000006000600fa0064
:1063b000204798002e4090000080fb0020079800a6
:1063c00020032000ae009000808f50001a003200a1
:1063d00020032000ae009000808f500007003c009a
:1063e0002e0090000000e0000d003200ae00900092
:1063f000f98f50000d00320018003700b004200063
:10640000ae009000808f50000e0032004006200049
:10641000ae009000808f50000d0032000f0037005a
:1064200090002000000f78000e003700300120009f
:10643000000f78000b003700d0012000000f78001b
:106440000800370070022000000f780005003700b8
:1064500000032000000f78000200370080012000b8
:10646000000f7800411820009140780080cfb300e1
:1064700000c0600084e1b7001e007800100c8800a6
:106480009e007800010c88008461a9001e0078003d
:10649000100c8800411820009140780080cfb30094
:1064a00000c060006040b30084e1b7000080fa00e3
:1064b00000000600801f78003400f8000000200073
:1064c000a00188000000fa00cbe2a8000000eb0069
:1064d000a00888001fe1a8008460a9000080fa00dd
:1064e0003400f9004f007800004006003400f80046
:1064f000881f780008002000a80188004f04780059
:106500000000fa001fe1a900cbe2a9008760a90002
:0c6510000080fa003400f9000040060092
:020000040000fa
:100dc8000000fa00c16920009140780000ceb3000d
:100dd80000c06000e040b3009ce6b700d169200085
:100de8009140780000ceb30000c06000d040b3004e
:100df8009de6b700111e20009140780080cfb30017
:100e080000c06000e1e1b700e1e1a900e1a1a900ab
:100e1800e0e1a900e0c1a900e041a800e301a800c1
:100e2800e2e1a800211e20009140780000c7b3002d
:100e380000c07000e2e1b7000000eb00200f88005e
:100e4800111e20009140780080cfb30000c06000e0
:100e58005040b300e1e1b7000080eb00300f88009c
:100e68008b40a9009b40a9006980a80069a0a80040
:100e78006ae0a80062e0a8009660a9008660a90060
:100e880013e1a9001221a90012c1a9002111200013
:100e98009140780000c3b30000c0700012e1b700b1
:100ea8000000eb005008880000322000700888001d
:100eb800a8c0bf007040b300a8e0b7008500a90033
:100ec8009500a80013e1a8000080fa0000000600c1
:100ed8000200fa00cac2bf0001c8b30001406000a6
:100ee8000004e00004003a00604580000000e800cb
:100ef800604588000a00370060458000e20f500016
:100f0800050036000000eb00604588001000200056
:100f1800000f7800040037000000eb0060458800ef
:100f28000000eb00000f78001e0078000080fa0037
:100f380000000600809fbe003400f800000020007a
:100f4800a00188000000fa00200f8000b04488004b
:100f5800b1448000c044800000805000d044880024
:100f6800d0448000e10f500003003c00d0448000d2
:100f7800e10f40000d003d00b1448000c0448000f6
:100f880000805000c200dd00b044800000804000b6
:100f9800200f8800200f8000b0448800b1448000f2
:100fa800c044800000805000d0448800b0448000d5
:100fb800c04488000000eb00500888008500a900a4
:100fc8000080fa003400f9004f00be00004006001f
:020000040000fa
:10651c003400f800881f780008002000a8018800cb
:10652c004f0478000000fa008020a900ffff37001c
:10653c003400f800881f780008002000a8018800ab
:10654c004f0478000000fa008060a900ffff3700bc
:10655c003400f800881f780008002000a80188008b
:10656c004f0478000000fa008040a900ffff3700bc
:10657c003400f800881f780008002000a80188006b
:10658c004f0478000000fa008080a900ffff37005c
:10659c00801f78003400f80000002000a001880063
:1065ac000000fa000000eb00001f880080a0a9008a
:1065bc00ffff37003400f800881f78000800200027
:1065cc00a80188004f0478000000fa008020a90080
:1065dc00ffff37003400f800881f78000800200007
:1065ec00a80188004f0478000000fa008060a90020
:1065fc00ffff37003400f800881f780008002000e7
:10660c00a80188004f0478000000fa008040a9001f
:10661c00ffff37003400f800881f780008002000c6
:10662c00a80188004f0478000000fa008080a900bf
:10663c00ffff3700801f78003400f80000002000b6
:10664c00a00188000000fa000000eb00001f880089
:08665c0080a0a900ffff370038
:020000040000fa
:1066640050080000460000000200000088859100e8
:10667400859a8500a385ac0085b58500be85c700d5
:1066840085d08500d985e20085eb8500f485fd0081
:10669400850686000f861800862186002a86330028
:1066a400863c860045864e008657860060866900d3
:1066b400867286007b868400868d860096869f007f
:1066c40086a88600b186ba008600000096080000fd
:1066d4001600000000000000ac08000002000000ea
:1066e4000200000000000000ae08000002000000ec
:0866f40000000000000000009e
:020000040000fa
:1066fc001080ba00000006001000ba00000006006e
:10670c00801f78000500fc0050052000303b8800fd
:10671c00a00a2000303b880061e7a80000000000c0
:10672c000000000061e7af00feff37004f0078006b
:10673c00000006008088bb000000060080c8bb007b
:10674c00000006008008bb00000006008048bb006b
:04675c000000060033
:020000040000fa
:040fd8000000fe0017
:00000001FF
